{
  "_format": "hh-sol-artifact-1",
  "contractName": "AlphaDrop",
  "sourceName": "contracts/AlphaDrop.sol",
  "abi": [
    {
      "inputs": [],
      "stateMutability": "nonpayable",
      "type": "constructor"
    },
    {
      "inputs": [
        {
          "internalType": "address",
          "name": "sender",
          "type": "address"
        },
        {
          "internalType": "uint256",
          "name": "tokenId",
          "type": "uint256"
        },
        {
          "internalType": "address",
          "name": "owner",
          "type": "address"
        }
      ],
      "name": "ERC721IncorrectOwner",
      "type": "error"
    },
    {
      "inputs": [
        {
          "internalType": "address",
          "name": "operator",
          "type": "address"
        },
        {
          "internalType": "uint256",
          "name": "tokenId",
          "type": "uint256"
        }
      ],
      "name": "ERC721InsufficientApproval",
      "type": "error"
    },
    {
      "inputs": [
        {
          "internalType": "address",
          "name": "approver",
          "type": "address"
        }
      ],
      "name": "ERC721InvalidApprover",
      "type": "error"
    },
    {
      "inputs": [
        {
          "internalType": "address",
          "name": "operator",
          "type": "address"
        }
      ],
      "name": "ERC721InvalidOperator",
      "type": "error"
    },
    {
      "inputs": [
        {
          "internalType": "address",
          "name": "owner",
          "type": "address"
        }
      ],
      "name": "ERC721InvalidOwner",
      "type": "error"
    },
    {
      "inputs": [
        {
          "internalType": "address",
          "name": "receiver",
          "type": "address"
        }
      ],
      "name": "ERC721InvalidReceiver",
      "type": "error"
    },
    {
      "inputs": [
        {
          "internalType": "address",
          "name": "sender",
          "type": "address"
        }
      ],
      "name": "ERC721InvalidSender",
      "type": "error"
    },
    {
      "inputs": [
        {
          "internalType": "uint256",
          "name": "tokenId",
          "type": "uint256"
        }
      ],
      "name": "ERC721NonexistentToken",
      "type": "error"
    },
    {
      "anonymous": false,
      "inputs": [
        {
          "indexed": true,
          "internalType": "address",
          "name": "owner",
          "type": "address"
        },
        {
          "indexed": true,
          "internalType": "address",
          "name": "approved",
          "type": "address"
        },
        {
          "indexed": true,
          "internalType": "uint256",
          "name": "tokenId",
          "type": "uint256"
        }
      ],
      "name": "Approval",
      "type": "event"
    },
    {
      "anonymous": false,
      "inputs": [
        {
          "indexed": true,
          "internalType": "address",
          "name": "owner",
          "type": "address"
        },
        {
          "indexed": true,
          "internalType": "address",
          "name": "operator",
          "type": "address"
        },
        {
          "indexed": false,
          "internalType": "bool",
          "name": "approved",
          "type": "bool"
        }
      ],
      "name": "ApprovalForAll",
      "type": "event"
    },
    {
      "anonymous": false,
      "inputs": [
        {
          "indexed": true,
          "internalType": "uint256",
          "name": "_depositId",
          "type": "uint256"
        },
        {
          "indexed": true,
          "internalType": "address",
          "name": "_recipientAddress",
          "type": "address"
        },
        {
          "indexed": false,
          "internalType": "uint256",
          "name": "_amount",
          "type": "uint256"
        }
      ],
      "name": "DepositClaimed",
      "type": "event"
    },
    {
      "anonymous": false,
      "inputs": [
        {
          "indexed": true,
          "internalType": "uint256",
          "name": "_depositId",
          "type": "uint256"
        },
        {
          "indexed": true,
          "internalType": "address",
          "name": "_senderAddress",
          "type": "address"
        },
        {
          "indexed": false,
          "internalType": "uint256",
          "name": "_amount",
          "type": "uint256"
        }
      ],
      "name": "DepositCreated",
      "type": "event"
    },
    {
      "anonymous": false,
      "inputs": [
        {
          "indexed": true,
          "internalType": "address",
          "name": "from",
          "type": "address"
        },
        {
          "indexed": true,
          "internalType": "address",
          "name": "to",
          "type": "address"
        },
        {
          "indexed": true,
          "internalType": "uint256",
          "name": "tokenId",
          "type": "uint256"
        }
      ],
      "name": "Transfer",
      "type": "event"
    },
    {
      "inputs": [
        {
          "internalType": "address",
          "name": "to",
          "type": "address"
        },
        {
          "internalType": "uint256",
          "name": "tokenId",
          "type": "uint256"
        }
      ],
      "name": "approve",
      "outputs": [],
      "stateMutability": "nonpayable",
      "type": "function"
    },
    {
      "inputs": [
        {
          "internalType": "address",
          "name": "owner",
          "type": "address"
        }
      ],
      "name": "balanceOf",
      "outputs": [
        {
          "internalType": "uint256",
          "name": "",
          "type": "uint256"
        }
      ],
      "stateMutability": "view",
      "type": "function"
    },
    {
      "inputs": [],
      "name": "batchIdCounter",
      "outputs": [
        {
          "internalType": "uint256",
          "name": "",
          "type": "uint256"
        }
      ],
      "stateMutability": "view",
      "type": "function"
    },
    {
      "inputs": [
        {
          "internalType": "uint256",
          "name": "_depositId",
          "type": "uint256"
        },
        {
          "internalType": "string",
          "name": "_password",
          "type": "string"
        }
      ],
      "name": "claimDeposit",
      "outputs": [
        {
          "internalType": "uint256",
          "name": "",
          "type": "uint256"
        },
        {
          "internalType": "address",
          "name": "",
          "type": "address"
        },
        {
          "internalType": "uint256",
          "name": "",
          "type": "uint256"
        }
      ],
      "stateMutability": "nonpayable",
      "type": "function"
    },
    {
      "inputs": [
        {
          "internalType": "bytes32[]",
          "name": "_hashedPasswords",
          "type": "bytes32[]"
        },
        {
          "internalType": "uint256",
          "name": "_numofPosititons",
          "type": "uint256"
        },
        {
          "internalType": "uint256",
          "name": "_withdrawableAt",
          "type": "uint256"
        },
        {
          "internalType": "address",
          "name": "_tokenAddress",
          "type": "address"
        },
        {
          "internalType": "uint256",
          "name": "_tokenAmount",
          "type": "uint256"
        },
        {
          "internalType": "contract IPool",
          "name": "_pool",
          "type": "address"
        },
        {
          "internalType": "bool",
          "name": "_checkEligibility",
          "type": "bool"
        }
      ],
      "name": "createDeposits",
      "outputs": [],
      "stateMutability": "payable",
      "type": "function"
    },
    {
      "inputs": [
        {
          "internalType": "uint256",
          "name": "",
          "type": "uint256"
        }
      ],
      "name": "deposits",
      "outputs": [
        {
          "internalType": "address",
          "name": "depositor",
          "type": "address"
        },
        {
          "internalType": "bytes32",
          "name": "hashedPassword",
          "type": "bytes32"
        },
        {
          "internalType": "uint256",
          "name": "amount",
          "type": "uint256"
        },
        {
          "internalType": "address",
          "name": "tokenAddress",
          "type": "address"
        },
        {
          "internalType": "contract IPool",
          "name": "pool",
          "type": "address"
        },
        {
          "internalType": "uint256",
          "name": "withdrawableAt",
          "type": "uint256"
        },
        {
          "internalType": "bool",
          "name": "claimed",
          "type": "bool"
        },
        {
          "internalType": "bool",
          "name": "checkEligibility",
          "type": "bool"
        },
        {
          "internalType": "uint256",
          "name": "batchId",
          "type": "uint256"
        }
      ],
      "stateMutability": "view",
      "type": "function"
    },
    {
      "inputs": [
        {
          "internalType": "uint256",
          "name": "tokenId",
          "type": "uint256"
        }
      ],
      "name": "getApproved",
      "outputs": [
        {
          "internalType": "address",
          "name": "",
          "type": "address"
        }
      ],
      "stateMutability": "view",
      "type": "function"
    },
    {
      "inputs": [],
      "name": "getDepositCount",
      "outputs": [
        {
          "internalType": "uint256",
          "name": "",
          "type": "uint256"
        }
      ],
      "stateMutability": "view",
      "type": "function"
    },
    {
      "inputs": [
        {
          "internalType": "string",
          "name": "password",
          "type": "string"
        }
      ],
      "name": "hashPassword",
      "outputs": [
        {
          "internalType": "bytes32",
          "name": "",
          "type": "bytes32"
        }
      ],
      "stateMutability": "pure",
      "type": "function"
    },
    {
      "inputs": [
        {
          "internalType": "address",
          "name": "owner",
          "type": "address"
        },
        {
          "internalType": "address",
          "name": "operator",
          "type": "address"
        }
      ],
      "name": "isApprovedForAll",
      "outputs": [
        {
          "internalType": "bool",
          "name": "",
          "type": "bool"
        }
      ],
      "stateMutability": "view",
      "type": "function"
    },
    {
      "inputs": [],
      "name": "name",
      "outputs": [
        {
          "internalType": "string",
          "name": "",
          "type": "string"
        }
      ],
      "stateMutability": "view",
      "type": "function"
    },
    {
      "inputs": [
        {
          "internalType": "uint256",
          "name": "tokenId",
          "type": "uint256"
        }
      ],
      "name": "ownerOf",
      "outputs": [
        {
          "internalType": "address",
          "name": "",
          "type": "address"
        }
      ],
      "stateMutability": "view",
      "type": "function"
    },
    {
      "inputs": [
        {
          "internalType": "address",
          "name": "from",
          "type": "address"
        },
        {
          "internalType": "address",
          "name": "to",
          "type": "address"
        },
        {
          "internalType": "uint256",
          "name": "tokenId",
          "type": "uint256"
        }
      ],
      "name": "safeTransferFrom",
      "outputs": [],
      "stateMutability": "nonpayable",
      "type": "function"
    },
    {
      "inputs": [
        {
          "internalType": "address",
          "name": "from",
          "type": "address"
        },
        {
          "internalType": "address",
          "name": "to",
          "type": "address"
        },
        {
          "internalType": "uint256",
          "name": "tokenId",
          "type": "uint256"
        },
        {
          "internalType": "bytes",
          "name": "data",
          "type": "bytes"
        }
      ],
      "name": "safeTransferFrom",
      "outputs": [],
      "stateMutability": "nonpayable",
      "type": "function"
    },
    {
      "inputs": [
        {
          "internalType": "address",
          "name": "operator",
          "type": "address"
        },
        {
          "internalType": "bool",
          "name": "approved",
          "type": "bool"
        }
      ],
      "name": "setApprovalForAll",
      "outputs": [],
      "stateMutability": "nonpayable",
      "type": "function"
    },
    {
      "inputs": [
        {
          "internalType": "bytes4",
          "name": "interfaceId",
          "type": "bytes4"
        }
      ],
      "name": "supportsInterface",
      "outputs": [
        {
          "internalType": "bool",
          "name": "",
          "type": "bool"
        }
      ],
      "stateMutability": "view",
      "type": "function"
    },
    {
      "inputs": [],
      "name": "symbol",
      "outputs": [
        {
          "internalType": "string",
          "name": "",
          "type": "string"
        }
      ],
      "stateMutability": "view",
      "type": "function"
    },
    {
      "inputs": [
        {
          "internalType": "uint256",
          "name": "tokenId",
          "type": "uint256"
        }
      ],
      "name": "tokenURI",
      "outputs": [
        {
          "internalType": "string",
          "name": "",
          "type": "string"
        }
      ],
      "stateMutability": "view",
      "type": "function"
    },
    {
      "inputs": [
        {
          "internalType": "address",
          "name": "from",
          "type": "address"
        },
        {
          "internalType": "address",
          "name": "to",
          "type": "address"
        },
        {
          "internalType": "uint256",
          "name": "tokenId",
          "type": "uint256"
        }
      ],
      "name": "transferFrom",
      "outputs": [],
      "stateMutability": "nonpayable",
      "type": "function"
    },
    {
      "inputs": [
        {
          "internalType": "uint256",
          "name": "_depositId",
          "type": "uint256"
        },
        {
          "internalType": "string",
          "name": "_password",
          "type": "string"
        }
      ],
      "name": "viewDeposit",
      "outputs": [
        {
          "internalType": "uint256",
          "name": "",
          "type": "uint256"
        },
        {
          "internalType": "address",
          "name": "",
          "type": "address"
        },
        {
          "internalType": "uint256",
          "name": "",
          "type": "uint256"
        }
      ],
      "stateMutability": "view",
      "type": "function"
    },
    {
      "inputs": [
        {
          "internalType": "uint256",
          "name": "_depositId",
          "type": "uint256"
        },
        {
          "internalType": "uint256",
          "name": "_amount",
          "type": "uint256"
        }
      ],
      "name": "withdrawDeposit",
      "outputs": [],
      "stateMutability": "nonpayable",
      "type": "function"
    }
  ],
  "bytecode": "0x608060405260006006553480156200001657600080fd5b506040518060400160405280600981526020017f416c70686144726f7000000000000000000000000000000000000000000000008152506040518060400160405280600281526020017f4144000000000000000000000000000000000000000000000000000000000000815250816000908162000094919062000329565b508060019081620000a6919062000329565b50505062000410565b600081519050919050565b7f4e487b7100000000000000000000000000000000000000000000000000000000600052604160045260246000fd5b7f4e487b7100000000000000000000000000000000000000000000000000000000600052602260045260246000fd5b600060028204905060018216806200013157607f821691505b602082108103620001475762000146620000e9565b5b50919050565b60008190508160005260206000209050919050565b60006020601f8301049050919050565b600082821b905092915050565b600060088302620001b17fffffffffffffffffffffffffffffffffffffffffffffffffffffffffffffffff8262000172565b620001bd868362000172565b95508019841693508086168417925050509392505050565b6000819050919050565b6000819050919050565b60006200020a62000204620001fe84620001d5565b620001df565b620001d5565b9050919050565b6000819050919050565b6200022683620001e9565b6200023e620002358262000211565b8484546200017f565b825550505050565b600090565b6200025562000246565b620002628184846200021b565b505050565b5b818110156200028a576200027e6000826200024b565b60018101905062000268565b5050565b601f821115620002d957620002a3816200014d565b620002ae8462000162565b81016020851015620002be578190505b620002d6620002cd8562000162565b83018262000267565b50505b505050565b600082821c905092915050565b6000620002fe60001984600802620002de565b1980831691505092915050565b6000620003198383620002eb565b9150826002028217905092915050565b6200033482620000af565b67ffffffffffffffff81111562000350576200034f620000ba565b5b6200035c825462000118565b620003698282856200028e565b600060209050601f831160018114620003a157600084156200038c578287015190505b6200039885826200030b565b86555062000408565b601f198416620003b1866200014d565b60005b82811015620003db57848901518255600182019150602085019450602081019050620003b4565b86831015620003fb5784890151620003f7601f891682620002eb565b8355505b6001600288020188555050505b505050505050565b613a9f80620004206000396000f3fe60806040526004361061012a5760003560e01c80636352211e116100ab578063a22cb4651161006f578063a22cb46514610421578063b02c43d01461044a578063b88d4fde1461048f578063bae04c9a146104b8578063c87b56dd146104e1578063e985e9c51461051e5761012a565b80636352211e1461032657806370a082311461036357806378bede29146103a05780639363a141146103cb57806395d89b41146103f65761012a565b80633f75a07d116100f25780633f75a07d1461022657806342842e0e1461026357806342a7148a1461028c578063606c1976146102cb57806361f357d9146102e75761012a565b806301ffc9a71461012f57806306fdde031461016c578063081812fc14610197578063095ea7b3146101d457806323b872dd146101fd575b600080fd5b34801561013b57600080fd5b5061015660048036038101906101519190612678565b61055b565b60405161016391906126c0565b60405180910390f35b34801561017857600080fd5b5061018161063d565b60405161018e919061276b565b60405180910390f35b3480156101a357600080fd5b506101be60048036038101906101b991906127c3565b6106cf565b6040516101cb9190612831565b60405180910390f35b3480156101e057600080fd5b506101fb60048036038101906101f69190612878565b6106eb565b005b34801561020957600080fd5b50610224600480360381019061021f91906128b8565b610701565b005b34801561023257600080fd5b5061024d60048036038101906102489190612a40565b610803565b60405161025a9190612aa2565b60405180910390f35b34801561026f57600080fd5b5061028a600480360381019061028591906128b8565b610838565b005b34801561029857600080fd5b506102b360048036038101906102ae9190612abd565b610858565b6040516102c293929190612b28565b60405180910390f35b6102e560048036038101906102e09190612cbd565b61099d565b005b3480156102f357600080fd5b5061030e60048036038101906103099190612abd565b610efd565b60405161031d93929190612b28565b60405180910390f35b34801561033257600080fd5b5061034d600480360381019061034891906127c3565b611228565b60405161035a9190612831565b60405180910390f35b34801561036f57600080fd5b5061038a60048036038101906103859190612d7b565b61123a565b6040516103979190612da8565b60405180910390f35b3480156103ac57600080fd5b506103b56112f4565b6040516103c29190612da8565b60405180910390f35b3480156103d757600080fd5b506103e06112fa565b6040516103ed9190612da8565b60405180910390f35b34801561040257600080fd5b5061040b611307565b604051610418919061276b565b60405180910390f35b34801561042d57600080fd5b5061044860048036038101906104439190612dc3565b611399565b005b34801561045657600080fd5b50610471600480360381019061046c91906127c3565b6113af565b60405161048699989796959493929190612e62565b60405180910390f35b34801561049b57600080fd5b506104b660048036038101906104b19190612f90565b611487565b005b3480156104c457600080fd5b506104df60048036038101906104da9190613013565b6114a4565b005b3480156104ed57600080fd5b50610508600480360381019061050391906127c3565b611794565b604051610515919061276b565b60405180910390f35b34801561052a57600080fd5b5061054560048036038101906105409190613053565b6117fd565b60405161055291906126c0565b60405180910390f35b60007f80ac58cd000000000000000000000000000000000000000000000000000000007bffffffffffffffffffffffffffffffffffffffffffffffffffffffff1916827bffffffffffffffffffffffffffffffffffffffffffffffffffffffff1916148061062657507f5b5e139f000000000000000000000000000000000000000000000000000000007bffffffffffffffffffffffffffffffffffffffffffffffffffffffff1916827bffffffffffffffffffffffffffffffffffffffffffffffffffffffff1916145b80610636575061063582611891565b5b9050919050565b60606000805461064c906130c2565b80601f0160208091040260200160405190810160405280929190818152602001828054610678906130c2565b80156106c55780601f1061069a576101008083540402835291602001916106c5565b820191906000526020600020905b8154815290600101906020018083116106a857829003601f168201915b5050505050905090565b60006106da826118fb565b506106e482611983565b9050919050565b6106fd82826106f86119c0565b6119c8565b5050565b600073ffffffffffffffffffffffffffffffffffffffff168273ffffffffffffffffffffffffffffffffffffffff16036107735760006040517f64a0ae9200000000000000000000000000000000000000000000000000000000815260040161076a9190612831565b60405180910390fd5b600061078783836107826119c0565b6119da565b90508373ffffffffffffffffffffffffffffffffffffffff168173ffffffffffffffffffffffffffffffffffffffff16146107fd578382826040517f64283d7b0000000000000000000000000000000000000000000000000000000081526004016107f4939291906130f3565b60405180910390fd5b50505050565b600080826040516020016108179190613166565b60405160208183030381529060405280519060200120905080915050919050565b61085383838360405180602001604052806000815250611487565b505050565b600080600060078054905085106108a4576040517f08c379a000000000000000000000000000000000000000000000000000000000815260040161089b906131c9565b60405180910390fd5b6000600786815481106108ba576108b96131e9565b5b906000526020600020906008020190508060060160009054906101000a900460ff161561091c576040517f08c379a000000000000000000000000000000000000000000000000000000000815260040161091390613264565b60405180910390fd5b8460405160200161092d9190613166565b60405160208183030381529060405280519060200120816001015414610988576040517f08c379a000000000000000000000000000000000000000000000000000000000815260040161097f906132d0565b60405180910390fd5b85338260020154935093509350509250925092565b60008751116109e1576040517f08c379a00000000000000000000000000000000000000000000000000000000081526004016109d89061333c565b60405180910390fd5b60008311610a24576040517f08c379a0000000000000000000000000000000000000000000000000000000008152600401610a1b906133ce565b60405180910390fd5b60008490508684610a35919061341d565b8173ffffffffffffffffffffffffffffffffffffffff166370a08231336040518263ffffffff1660e01b8152600401610a6e9190612831565b602060405180830381865afa158015610a8b573d6000803e3d6000fd5b505050506040513d601f19601f82011682018060405250810190610aaf9190613474565b11610ab957600080fd5b600160066000828254610acc91906134a1565b9250508190555060006006549050600073ffffffffffffffffffffffffffffffffffffffff168673ffffffffffffffffffffffffffffffffffffffff1614610c205760003414610b51576040517f08c379a0000000000000000000000000000000000000000000000000000000008152600401610b4890613547565b60405180910390fd5b8173ffffffffffffffffffffffffffffffffffffffff166323b872dd33308b89610b7b919061341d565b6040518463ffffffff1660e01b8152600401610b9993929190613567565b6020604051808303816000875af1158015610bb8573d6000803e3d6000fd5b505050506040513d601f19601f82011682018060405250810190610bdc91906135b3565b610c1b576040517f08c379a0000000000000000000000000000000000000000000000000000000008152600401610c129061362c565b60405180910390fd5b610c67565b60003411610c63576040517f08c379a0000000000000000000000000000000000000000000000000000000008152600401610c5a90613698565b60405180910390fd5b3494505b60005b88811015610ef15760076040518061012001604052803373ffffffffffffffffffffffffffffffffffffffff1681526020018c8481518110610caf57610cae6131e9565b5b602002602001015181526020018881526020018973ffffffffffffffffffffffffffffffffffffffff1681526020018773ffffffffffffffffffffffffffffffffffffffff1681526020018a8152602001600015158152602001861515815260200184815250908060018154018082558091505060019003906000526020600020906008020160009091909190915060008201518160000160006101000a81548173ffffffffffffffffffffffffffffffffffffffff021916908373ffffffffffffffffffffffffffffffffffffffff160217905550602082015181600101556040820151816002015560608201518160030160006101000a81548173ffffffffffffffffffffffffffffffffffffffff021916908373ffffffffffffffffffffffffffffffffffffffff16021790555060808201518160040160006101000a81548173ffffffffffffffffffffffffffffffffffffffff021916908373ffffffffffffffffffffffffffffffffffffffff16021790555060a0820151816005015560c08201518160060160006101000a81548160ff02191690831515021790555060e08201518160060160016101000a81548160ff0219169083151502179055506101008201518160070155505060006001600780549050610e9291906136b8565b90503373ffffffffffffffffffffffffffffffffffffffff16817fbe57b55595bfb8f6ba81e2e42dddbd5c7e0661ad3e3ea41ebe1787c121964dac89604051610edb9190612da8565b60405180910390a3508080600101915050610c6a565b50505050505050505050565b60008060006007805490508510610f49576040517f08c379a0000000000000000000000000000000000000000000000000000000008152600401610f40906131c9565b60405180910390fd5b600060078681548110610f5f57610f5e6131e9565b5b906000526020600020906008020190508060060160009054906101000a900460ff1615610fc1576040517f08c379a0000000000000000000000000000000000000000000000000000000008152600401610fb890613264565b60405180910390fd5b84604051602001610fd29190613166565b6040516020818303038152906040528051906020012081600101541461102d576040517f08c379a0000000000000000000000000000000000000000000000000000000008152600401611024906132d0565b60405180910390fd5b60008160040160009054906101000a900473ffffffffffffffffffffffffffffffffffffffff16905060008260030160009054906101000a900473ffffffffffffffffffffffffffffffffffffffff1690508073ffffffffffffffffffffffffffffffffffffffff1663095ea7b38385600201546040518363ffffffff1660e01b81526004016110be9291906136ec565b6020604051808303816000875af11580156110dd573d6000803e3d6000fd5b505050506040513d601f19601f8201168201806040525081019061110191906135b3565b508173ffffffffffffffffffffffffffffffffffffffff16636e553f6584600201548560030160009054906101000a900473ffffffffffffffffffffffffffffffffffffffff166040518363ffffffff1660e01b8152600401611165929190613715565b600060405180830381600087803b15801561117f57600080fd5b505af1158015611193573d6000803e3d6000fd5b505050506111a13389611bf4565b60018360060160006101000a81548160ff0219169083151502179055503373ffffffffffffffffffffffffffffffffffffffff16887facb5e5700b5a312da42fca897046d87226094d7032852cc1a3cd9e4c54538b2c85600201546040516112099190612da8565b60405180910390a3873384600201549550955095505050509250925092565b6000611233826118fb565b9050919050565b60008073ffffffffffffffffffffffffffffffffffffffff168273ffffffffffffffffffffffffffffffffffffffff16036112ad5760006040517f89c62b640000000000000000000000000000000000000000000000000000000081526004016112a49190612831565b60405180910390fd5b600360008373ffffffffffffffffffffffffffffffffffffffff1673ffffffffffffffffffffffffffffffffffffffff168152602001908152602001600020549050919050565b60065481565b6000600780549050905090565b606060018054611316906130c2565b80601f0160208091040260200160405190810160405280929190818152602001828054611342906130c2565b801561138f5780601f106113645761010080835404028352916020019161138f565b820191906000526020600020905b81548152906001019060200180831161137257829003601f168201915b5050505050905090565b6113ab6113a46119c0565b8383611c12565b5050565b600781815481106113bf57600080fd5b90600052602060002090600802016000915090508060000160009054906101000a900473ffffffffffffffffffffffffffffffffffffffff16908060010154908060020154908060030160009054906101000a900473ffffffffffffffffffffffffffffffffffffffff16908060040160009054906101000a900473ffffffffffffffffffffffffffffffffffffffff16908060050154908060060160009054906101000a900460ff16908060060160019054906101000a900460ff16908060070154905089565b611492848484610701565b61149e84848484611d81565b50505050565b60078054905082106114eb576040517f08c379a00000000000000000000000000000000000000000000000000000000081526004016114e2906131c9565b60405180910390fd5b600060078381548110611501576115006131e9565b5b906000526020600020906008020190503373ffffffffffffffffffffffffffffffffffffffff1661153184611228565b73ffffffffffffffffffffffffffffffffffffffff1614611587576040517f08c379a000000000000000000000000000000000000000000000000000000000815260040161157e9061378a565b60405180910390fd5b8060060160009054906101000a900460ff166115d8576040517f08c379a00000000000000000000000000000000000000000000000000000000081526004016115cf906137f6565b60405180910390fd5b818160020154101561161f576040517f08c379a000000000000000000000000000000000000000000000000000000000815260040161161690613862565b60405180910390fd5b8060050154421015611666576040517f08c379a000000000000000000000000000000000000000000000000000000000815260040161165d906138ce565b60405180910390fd5b60008160040160009054906101000a900473ffffffffffffffffffffffffffffffffffffffff1690508073ffffffffffffffffffffffffffffffffffffffff166323e103a8848460030160009054906101000a900473ffffffffffffffffffffffffffffffffffffffff1630336040518563ffffffff1660e01b81526004016116f294939291906138ee565b600060405180830381600087803b15801561170c57600080fd5b505af1158015611720573d6000803e3d6000fd5b505050508282600201600082825461173891906136b8565b925050819055503373ffffffffffffffffffffffffffffffffffffffff16847facb5e5700b5a312da42fca897046d87226094d7032852cc1a3cd9e4c54538b2c856040516117869190612da8565b60405180910390a350505050565b606061179f826118fb565b5060006117aa611f38565b905060008151116117ca57604051806020016040528060008152506117f5565b806117d484611f4f565b6040516020016117e5929190613933565b6040516020818303038152906040525b915050919050565b6000600560008473ffffffffffffffffffffffffffffffffffffffff1673ffffffffffffffffffffffffffffffffffffffff16815260200190815260200160002060008373ffffffffffffffffffffffffffffffffffffffff1673ffffffffffffffffffffffffffffffffffffffff16815260200190815260200160002060009054906101000a900460ff16905092915050565b60007f01ffc9a7000000000000000000000000000000000000000000000000000000007bffffffffffffffffffffffffffffffffffffffffffffffffffffffff1916827bffffffffffffffffffffffffffffffffffffffffffffffffffffffff1916149050919050565b6000806119078361201d565b9050600073ffffffffffffffffffffffffffffffffffffffff168173ffffffffffffffffffffffffffffffffffffffff160361197a57826040517f7e2732890000000000000000000000000000000000000000000000000000000081526004016119719190612da8565b60405180910390fd5b80915050919050565b60006004600083815260200190815260200160002060009054906101000a900473ffffffffffffffffffffffffffffffffffffffff169050919050565b600033905090565b6119d5838383600161205a565b505050565b6000806119e68461201d565b9050600073ffffffffffffffffffffffffffffffffffffffff168373ffffffffffffffffffffffffffffffffffffffff1614611a2857611a2781848661221f565b5b600073ffffffffffffffffffffffffffffffffffffffff168173ffffffffffffffffffffffffffffffffffffffff1614611ab957611a6a60008560008061205a565b6001600360008373ffffffffffffffffffffffffffffffffffffffff1673ffffffffffffffffffffffffffffffffffffffff168152602001908152602001600020600082825403925050819055505b600073ffffffffffffffffffffffffffffffffffffffff168573ffffffffffffffffffffffffffffffffffffffff1614611b3c576001600360008773ffffffffffffffffffffffffffffffffffffffff1673ffffffffffffffffffffffffffffffffffffffff168152602001908152602001600020600082825401925050819055505b846002600086815260200190815260200160002060006101000a81548173ffffffffffffffffffffffffffffffffffffffff021916908373ffffffffffffffffffffffffffffffffffffffff160217905550838573ffffffffffffffffffffffffffffffffffffffff168273ffffffffffffffffffffffffffffffffffffffff167fddf252ad1be2c89b69c2b068fc378daa952ba7f163c4a11628f55a4df523b3ef60405160405180910390a4809150509392505050565b611c0e8282604051806020016040528060008152506122e3565b5050565b600073ffffffffffffffffffffffffffffffffffffffff168273ffffffffffffffffffffffffffffffffffffffff1603611c8357816040517f5b08ba18000000000000000000000000000000000000000000000000000000008152600401611c7a9190612831565b60405180910390fd5b80600560008573ffffffffffffffffffffffffffffffffffffffff1673ffffffffffffffffffffffffffffffffffffffff16815260200190815260200160002060008473ffffffffffffffffffffffffffffffffffffffff1673ffffffffffffffffffffffffffffffffffffffff16815260200190815260200160002060006101000a81548160ff0219169083151502179055508173ffffffffffffffffffffffffffffffffffffffff168373ffffffffffffffffffffffffffffffffffffffff167f17307eab39ab6107e8899845ad3d59bd9653f200f220920489ca2b5937696c3183604051611d7491906126c0565b60405180910390a3505050565b60008373ffffffffffffffffffffffffffffffffffffffff163b1115611f32578273ffffffffffffffffffffffffffffffffffffffff1663150b7a02611dc56119c0565b8685856040518563ffffffff1660e01b8152600401611de794939291906139ac565b6020604051808303816000875af1925050508015611e2357506040513d601f19601f82011682018060405250810190611e209190613a0d565b60015b611ea7573d8060008114611e53576040519150601f19603f3d011682016040523d82523d6000602084013e611e58565b606091505b506000815103611e9f57836040517f64a0ae92000000000000000000000000000000000000000000000000000000008152600401611e969190612831565b60405180910390fd5b805181602001fd5b63150b7a0260e01b7bffffffffffffffffffffffffffffffffffffffffffffffffffffffff1916817bffffffffffffffffffffffffffffffffffffffffffffffffffffffff191614611f3057836040517f64a0ae92000000000000000000000000000000000000000000000000000000008152600401611f279190612831565b60405180910390fd5b505b50505050565b606060405180602001604052806000815250905090565b606060006001611f5e846122ff565b01905060008167ffffffffffffffff811115611f7d57611f7c612915565b5b6040519080825280601f01601f191660200182016040528015611faf5781602001600182028036833780820191505090505b509050600082602001820190505b600115612012578080600190039150507f3031323334353637383961626364656600000000000000000000000000000000600a86061a8153600a858161200657612005613a3a565b5b04945060008503611fbd575b819350505050919050565b60006002600083815260200190815260200160002060009054906101000a900473ffffffffffffffffffffffffffffffffffffffff169050919050565b80806120935750600073ffffffffffffffffffffffffffffffffffffffff168273ffffffffffffffffffffffffffffffffffffffff1614155b156121c75760006120a3846118fb565b9050600073ffffffffffffffffffffffffffffffffffffffff168373ffffffffffffffffffffffffffffffffffffffff161415801561210e57508273ffffffffffffffffffffffffffffffffffffffff168173ffffffffffffffffffffffffffffffffffffffff1614155b8015612121575061211f81846117fd565b155b1561216357826040517fa9fbf51f00000000000000000000000000000000000000000000000000000000815260040161215a9190612831565b60405180910390fd5b81156121c557838573ffffffffffffffffffffffffffffffffffffffff168273ffffffffffffffffffffffffffffffffffffffff167f8c5be1e5ebec7d5bd14f71427d1e84f3dd0314c0f7b2291e5b200ac8c7c3b92560405160405180910390a45b505b836004600085815260200190815260200160002060006101000a81548173ffffffffffffffffffffffffffffffffffffffff021916908373ffffffffffffffffffffffffffffffffffffffff16021790555050505050565b61222a838383612452565b6122de57600073ffffffffffffffffffffffffffffffffffffffff168373ffffffffffffffffffffffffffffffffffffffff160361229f57806040517f7e2732890000000000000000000000000000000000000000000000000000000081526004016122969190612da8565b60405180910390fd5b81816040517f177e802f0000000000000000000000000000000000000000000000000000000081526004016122d59291906136ec565b60405180910390fd5b505050565b6122ed8383612513565b6122fa6000848484611d81565b505050565b600080600090507a184f03e93ff9f4daa797ed6e38ed64bf6a1f010000000000000000831061235d577a184f03e93ff9f4daa797ed6e38ed64bf6a1f010000000000000000838161235357612352613a3a565b5b0492506040810190505b6d04ee2d6d415b85acef8100000000831061239a576d04ee2d6d415b85acef810000000083816123905761238f613a3a565b5b0492506020810190505b662386f26fc1000083106123c957662386f26fc1000083816123bf576123be613a3a565b5b0492506010810190505b6305f5e10083106123f2576305f5e10083816123e8576123e7613a3a565b5b0492506008810190505b612710831061241757612710838161240d5761240c613a3a565b5b0492506004810190505b6064831061243a57606483816124305761242f613a3a565b5b0492506002810190505b600a8310612449576001810190505b80915050919050565b60008073ffffffffffffffffffffffffffffffffffffffff168373ffffffffffffffffffffffffffffffffffffffff161415801561250a57508273ffffffffffffffffffffffffffffffffffffffff168473ffffffffffffffffffffffffffffffffffffffff1614806124cb57506124ca84846117fd565b5b8061250957508273ffffffffffffffffffffffffffffffffffffffff166124f183611983565b73ffffffffffffffffffffffffffffffffffffffff16145b5b90509392505050565b600073ffffffffffffffffffffffffffffffffffffffff168273ffffffffffffffffffffffffffffffffffffffff16036125855760006040517f64a0ae9200000000000000000000000000000000000000000000000000000000815260040161257c9190612831565b60405180910390fd5b6000612593838360006119da565b9050600073ffffffffffffffffffffffffffffffffffffffff168173ffffffffffffffffffffffffffffffffffffffff16146126075760006040517f73c6ac6e0000000000000000000000000000000000000000000000000000000081526004016125fe9190612831565b60405180910390fd5b505050565b6000604051905090565b600080fd5b600080fd5b60007fffffffff0000000000000000000000000000000000000000000000000000000082169050919050565b61265581612620565b811461266057600080fd5b50565b6000813590506126728161264c565b92915050565b60006020828403121561268e5761268d612616565b5b600061269c84828501612663565b91505092915050565b60008115159050919050565b6126ba816126a5565b82525050565b60006020820190506126d560008301846126b1565b92915050565b600081519050919050565b600082825260208201905092915050565b60005b838110156127155780820151818401526020810190506126fa565b60008484015250505050565b6000601f19601f8301169050919050565b600061273d826126db565b61274781856126e6565b93506127578185602086016126f7565b61276081612721565b840191505092915050565b600060208201905081810360008301526127858184612732565b905092915050565b6000819050919050565b6127a08161278d565b81146127ab57600080fd5b50565b6000813590506127bd81612797565b92915050565b6000602082840312156127d9576127d8612616565b5b60006127e7848285016127ae565b91505092915050565b600073ffffffffffffffffffffffffffffffffffffffff82169050919050565b600061281b826127f0565b9050919050565b61282b81612810565b82525050565b60006020820190506128466000830184612822565b92915050565b61285581612810565b811461286057600080fd5b50565b6000813590506128728161284c565b92915050565b6000806040838503121561288f5761288e612616565b5b600061289d85828601612863565b92505060206128ae858286016127ae565b9150509250929050565b6000806000606084860312156128d1576128d0612616565b5b60006128df86828701612863565b93505060206128f086828701612863565b9250506040612901868287016127ae565b9150509250925092565b600080fd5b600080fd5b7f4e487b7100000000000000000000000000000000000000000000000000000000600052604160045260246000fd5b61294d82612721565b810181811067ffffffffffffffff8211171561296c5761296b612915565b5b80604052505050565b600061297f61260c565b905061298b8282612944565b919050565b600067ffffffffffffffff8211156129ab576129aa612915565b5b6129b482612721565b9050602081019050919050565b82818337600083830152505050565b60006129e36129de84612990565b612975565b9050828152602081018484840111156129ff576129fe612910565b5b612a0a8482856129c1565b509392505050565b600082601f830112612a2757612a2661290b565b5b8135612a378482602086016129d0565b91505092915050565b600060208284031215612a5657612a55612616565b5b600082013567ffffffffffffffff811115612a7457612a7361261b565b5b612a8084828501612a12565b91505092915050565b6000819050919050565b612a9c81612a89565b82525050565b6000602082019050612ab76000830184612a93565b92915050565b60008060408385031215612ad457612ad3612616565b5b6000612ae2858286016127ae565b925050602083013567ffffffffffffffff811115612b0357612b0261261b565b5b612b0f85828601612a12565b9150509250929050565b612b228161278d565b82525050565b6000606082019050612b3d6000830186612b19565b612b4a6020830185612822565b612b576040830184612b19565b949350505050565b600067ffffffffffffffff821115612b7a57612b79612915565b5b602082029050602081019050919050565b600080fd5b612b9981612a89565b8114612ba457600080fd5b50565b600081359050612bb681612b90565b92915050565b6000612bcf612bca84612b5f565b612975565b90508083825260208201905060208402830185811115612bf257612bf1612b8b565b5b835b81811015612c1b5780612c078882612ba7565b845260208401935050602081019050612bf4565b5050509392505050565b600082601f830112612c3a57612c3961290b565b5b8135612c4a848260208601612bbc565b91505092915050565b6000612c5e82612810565b9050919050565b612c6e81612c53565b8114612c7957600080fd5b50565b600081359050612c8b81612c65565b92915050565b612c9a816126a5565b8114612ca557600080fd5b50565b600081359050612cb781612c91565b92915050565b600080600080600080600060e0888a031215612cdc57612cdb612616565b5b600088013567ffffffffffffffff811115612cfa57612cf961261b565b5b612d068a828b01612c25565b9750506020612d178a828b016127ae565b9650506040612d288a828b016127ae565b9550506060612d398a828b01612863565b9450506080612d4a8a828b016127ae565b93505060a0612d5b8a828b01612c7c565b92505060c0612d6c8a828b01612ca8565b91505092959891949750929550565b600060208284031215612d9157612d90612616565b5b6000612d9f84828501612863565b91505092915050565b6000602082019050612dbd6000830184612b19565b92915050565b60008060408385031215612dda57612dd9612616565b5b6000612de885828601612863565b9250506020612df985828601612ca8565b9150509250929050565b6000819050919050565b6000612e28612e23612e1e846127f0565b612e03565b6127f0565b9050919050565b6000612e3a82612e0d565b9050919050565b6000612e4c82612e2f565b9050919050565b612e5c81612e41565b82525050565b600061012082019050612e78600083018c612822565b612e85602083018b612a93565b612e92604083018a612b19565b612e9f6060830189612822565b612eac6080830188612e53565b612eb960a0830187612b19565b612ec660c08301866126b1565b612ed360e08301856126b1565b612ee1610100830184612b19565b9a9950505050505050505050565b600067ffffffffffffffff821115612f0a57612f09612915565b5b612f1382612721565b9050602081019050919050565b6000612f33612f2e84612eef565b612975565b905082815260208101848484011115612f4f57612f4e612910565b5b612f5a8482856129c1565b509392505050565b600082601f830112612f7757612f7661290b565b5b8135612f87848260208601612f20565b91505092915050565b60008060008060808587031215612faa57612fa9612616565b5b6000612fb887828801612863565b9450506020612fc987828801612863565b9350506040612fda878288016127ae565b925050606085013567ffffffffffffffff811115612ffb57612ffa61261b565b5b61300787828801612f62565b91505092959194509250565b6000806040838503121561302a57613029612616565b5b6000613038858286016127ae565b9250506020613049858286016127ae565b9150509250929050565b6000806040838503121561306a57613069612616565b5b600061307885828601612863565b925050602061308985828601612863565b9150509250929050565b7f4e487b7100000000000000000000000000000000000000000000000000000000600052602260045260246000fd5b600060028204905060018216806130da57607f821691505b6020821081036130ed576130ec613093565b5b50919050565b60006060820190506131086000830186612822565b6131156020830185612b19565b6131226040830184612822565b949350505050565b600081905092915050565b6000613140826126db565b61314a818561312a565b935061315a8185602086016126f7565b80840191505092915050565b60006131728284613135565b915081905092915050565b7f4465706f736974204944206f7574206f662072616e6765000000000000000000600082015250565b60006131b36017836126e6565b91506131be8261317d565b602082019050919050565b600060208201905081810360008301526131e2816131a6565b9050919050565b7f4e487b7100000000000000000000000000000000000000000000000000000000600052603260045260246000fd5b7f4465706f73697420616c726561647920636c61696d6564000000000000000000600082015250565b600061324e6017836126e6565b915061325982613218565b602082019050919050565b6000602082019050818103600083015261327d81613241565b9050919050565b7f496e76616c69642070617373776f726400000000000000000000000000000000600082015250565b60006132ba6010836126e6565b91506132c582613284565b602082019050919050565b600060208201905081810360008301526132e9816132ad565b9050919050565b7f4e6f206861736865642070617373776f7264732070726f766964656400000000600082015250565b6000613326601c836126e6565b9150613331826132f0565b602082019050919050565b6000602082019050818103600083015261335581613319565b9050919050565b7f546f6b656e20616d6f756e74206d75737420626520677265617465722074686160008201527f6e207a65726f0000000000000000000000000000000000000000000000000000602082015250565b60006133b86026836126e6565b91506133c38261335c565b604082019050919050565b600060208201905081810360008301526133e7816133ab565b9050919050565b7f4e487b7100000000000000000000000000000000000000000000000000000000600052601160045260246000fd5b60006134288261278d565b91506134338361278d565b92508282026134418161278d565b91508282048414831517613458576134576133ee565b5b5092915050565b60008151905061346e81612797565b92915050565b60006020828403121561348a57613489612616565b5b60006134988482850161345f565b91505092915050565b60006134ac8261278d565b91506134b78361278d565b92508282019050808211156134cf576134ce6133ee565b5b92915050565b7f43616e6e6f74206465706f73697420626f74682045544820616e64204552433260008201527f3020746f6b656e00000000000000000000000000000000000000000000000000602082015250565b60006135316027836126e6565b915061353c826134d5565b604082019050919050565b6000602082019050818103600083015261356081613524565b9050919050565b600060608201905061357c6000830186612822565b6135896020830185612822565b6135966040830184612b19565b949350505050565b6000815190506135ad81612c91565b92915050565b6000602082840312156135c9576135c8612616565b5b60006135d78482850161359e565b91505092915050565b7f4661696c656420746f207472616e7366657220455243323020746f6b656e0000600082015250565b6000613616601e836126e6565b9150613621826135e0565b602082019050919050565b6000602082019050818103600083015261364581613609565b9050919050565b7f4e6f204554482073656e74000000000000000000000000000000000000000000600082015250565b6000613682600b836126e6565b915061368d8261364c565b602082019050919050565b600060208201905081810360008301526136b181613675565b9050919050565b60006136c38261278d565b91506136ce8361278d565b92508282039050818111156136e6576136e56133ee565b5b92915050565b60006040820190506137016000830185612822565b61370e6020830184612b19565b9392505050565b600060408201905061372a6000830185612b19565b6137376020830184612822565b9392505050565b7f4e6f74206f776e6572206f66206465706f736974000000000000000000000000600082015250565b60006137746014836126e6565b915061377f8261373e565b602082019050919050565b600060208201905081810360008301526137a381613767565b9050919050565b7f4465706f736974206d75737420626520636c61696d6564000000000000000000600082015250565b60006137e06017836126e6565b91506137eb826137aa565b602082019050919050565b6000602082019050818103600083015261380f816137d3565b9050919050565b7f4e6f7420656e6f7567682066756e647300000000000000000000000000000000600082015250565b600061384c6010836126e6565b915061385782613816565b602082019050919050565b6000602082019050818103600083015261387b8161383f565b9050919050565b7f4465706f736974206e6f742079657420776974686472617761626c6500000000600082015250565b60006138b8601c836126e6565b91506138c382613882565b602082019050919050565b600060208201905081810360008301526138e7816138ab565b9050919050565b60006080820190506139036000830187612b19565b6139106020830186612822565b61391d6040830185612822565b61392a6060830184612822565b95945050505050565b600061393f8285613135565b915061394b8284613135565b91508190509392505050565b600081519050919050565b600082825260208201905092915050565b600061397e82613957565b6139888185613962565b93506139988185602086016126f7565b6139a181612721565b840191505092915050565b60006080820190506139c16000830187612822565b6139ce6020830186612822565b6139db6040830185612b19565b81810360608301526139ed8184613973565b905095945050505050565b600081519050613a078161264c565b92915050565b600060208284031215613a2357613a22612616565b5b6000613a31848285016139f8565b91505092915050565b7f4e487b7100000000000000000000000000000000000000000000000000000000600052601260045260246000fdfea26469706673582212206930c541cdf0666f130ceeacfe8c5eece73f36bc538a7b8e96f47f87fa2223b264736f6c63430008180033",
  "linkReferences": {},
  "deployedLinkReferences": {}
}