{
  "_format": "hh-sol-artifact-1",
  "contractName": "AlphaDrop",
  "sourceName": "contracts/AlphaDrop.sol",
  "abi": [
    {
      "inputs": [],
      "stateMutability": "nonpayable",
      "type": "constructor"
    },
    {
      "inputs": [
        {
          "internalType": "address",
          "name": "sender",
          "type": "address"
        },
        {
          "internalType": "uint256",
          "name": "tokenId",
          "type": "uint256"
        },
        {
          "internalType": "address",
          "name": "owner",
          "type": "address"
        }
      ],
      "name": "ERC721IncorrectOwner",
      "type": "error"
    },
    {
      "inputs": [
        {
          "internalType": "address",
          "name": "operator",
          "type": "address"
        },
        {
          "internalType": "uint256",
          "name": "tokenId",
          "type": "uint256"
        }
      ],
      "name": "ERC721InsufficientApproval",
      "type": "error"
    },
    {
      "inputs": [
        {
          "internalType": "address",
          "name": "approver",
          "type": "address"
        }
      ],
      "name": "ERC721InvalidApprover",
      "type": "error"
    },
    {
      "inputs": [
        {
          "internalType": "address",
          "name": "operator",
          "type": "address"
        }
      ],
      "name": "ERC721InvalidOperator",
      "type": "error"
    },
    {
      "inputs": [
        {
          "internalType": "address",
          "name": "owner",
          "type": "address"
        }
      ],
      "name": "ERC721InvalidOwner",
      "type": "error"
    },
    {
      "inputs": [
        {
          "internalType": "address",
          "name": "receiver",
          "type": "address"
        }
      ],
      "name": "ERC721InvalidReceiver",
      "type": "error"
    },
    {
      "inputs": [
        {
          "internalType": "address",
          "name": "sender",
          "type": "address"
        }
      ],
      "name": "ERC721InvalidSender",
      "type": "error"
    },
    {
      "inputs": [
        {
          "internalType": "uint256",
          "name": "tokenId",
          "type": "uint256"
        }
      ],
      "name": "ERC721NonexistentToken",
      "type": "error"
    },
    {
      "anonymous": false,
      "inputs": [
        {
          "indexed": true,
          "internalType": "address",
          "name": "owner",
          "type": "address"
        },
        {
          "indexed": true,
          "internalType": "address",
          "name": "approved",
          "type": "address"
        },
        {
          "indexed": true,
          "internalType": "uint256",
          "name": "tokenId",
          "type": "uint256"
        }
      ],
      "name": "Approval",
      "type": "event"
    },
    {
      "anonymous": false,
      "inputs": [
        {
          "indexed": true,
          "internalType": "address",
          "name": "owner",
          "type": "address"
        },
        {
          "indexed": true,
          "internalType": "address",
          "name": "operator",
          "type": "address"
        },
        {
          "indexed": false,
          "internalType": "bool",
          "name": "approved",
          "type": "bool"
        }
      ],
      "name": "ApprovalForAll",
      "type": "event"
    },
    {
      "anonymous": false,
      "inputs": [
        {
          "indexed": true,
          "internalType": "uint256",
          "name": "_depositId",
          "type": "uint256"
        },
        {
          "indexed": true,
          "internalType": "address",
          "name": "_recipientAddress",
          "type": "address"
        },
        {
          "indexed": false,
          "internalType": "uint256",
          "name": "_amount",
          "type": "uint256"
        }
      ],
      "name": "DepositClaimed",
      "type": "event"
    },
    {
      "anonymous": false,
      "inputs": [
        {
          "indexed": true,
          "internalType": "uint256",
          "name": "_depositId",
          "type": "uint256"
        },
        {
          "indexed": true,
          "internalType": "address",
          "name": "_senderAddress",
          "type": "address"
        },
        {
          "indexed": false,
          "internalType": "uint256",
          "name": "_amount",
          "type": "uint256"
        }
      ],
      "name": "DepositCreated",
      "type": "event"
    },
    {
      "anonymous": false,
      "inputs": [
        {
          "indexed": true,
          "internalType": "address",
          "name": "from",
          "type": "address"
        },
        {
          "indexed": true,
          "internalType": "address",
          "name": "to",
          "type": "address"
        },
        {
          "indexed": true,
          "internalType": "uint256",
          "name": "tokenId",
          "type": "uint256"
        }
      ],
      "name": "Transfer",
      "type": "event"
    },
    {
      "inputs": [
        {
          "internalType": "address",
          "name": "to",
          "type": "address"
        },
        {
          "internalType": "uint256",
          "name": "tokenId",
          "type": "uint256"
        }
      ],
      "name": "approve",
      "outputs": [],
      "stateMutability": "nonpayable",
      "type": "function"
    },
    {
      "inputs": [
        {
          "internalType": "address",
          "name": "owner",
          "type": "address"
        }
      ],
      "name": "balanceOf",
      "outputs": [
        {
          "internalType": "uint256",
          "name": "",
          "type": "uint256"
        }
      ],
      "stateMutability": "view",
      "type": "function"
    },
    {
      "inputs": [],
      "name": "batchIdCounter",
      "outputs": [
        {
          "internalType": "uint256",
          "name": "",
          "type": "uint256"
        }
      ],
      "stateMutability": "view",
      "type": "function"
    },
    {
      "inputs": [
        {
          "internalType": "uint256",
          "name": "_depositId",
          "type": "uint256"
        },
        {
          "internalType": "string",
          "name": "_password",
          "type": "string"
        }
      ],
      "name": "claimDeposit",
      "outputs": [
        {
          "internalType": "uint256",
          "name": "",
          "type": "uint256"
        },
        {
          "internalType": "address",
          "name": "",
          "type": "address"
        },
        {
          "internalType": "uint256",
          "name": "",
          "type": "uint256"
        }
      ],
      "stateMutability": "nonpayable",
      "type": "function"
    },
    {
      "inputs": [
        {
          "internalType": "bytes32[]",
          "name": "_hashedPasswords",
          "type": "bytes32[]"
        },
        {
          "internalType": "uint256",
          "name": "_numofPosititons",
          "type": "uint256"
        },
        {
          "internalType": "uint256",
          "name": "_withdrawableAt",
          "type": "uint256"
        },
        {
          "internalType": "address",
          "name": "_tokenAddress",
          "type": "address"
        },
        {
          "internalType": "uint256",
          "name": "_tokenAmount",
          "type": "uint256"
        },
        {
          "internalType": "contract IPool",
          "name": "_pool",
          "type": "address"
        },
        {
          "internalType": "bool",
          "name": "_checkEligibility",
          "type": "bool"
        }
      ],
      "name": "createDeposits",
      "outputs": [],
      "stateMutability": "payable",
      "type": "function"
    },
    {
      "inputs": [
        {
          "internalType": "uint256",
          "name": "",
          "type": "uint256"
        }
      ],
      "name": "deposits",
      "outputs": [
        {
          "internalType": "address",
          "name": "depositor",
          "type": "address"
        },
        {
          "internalType": "bytes32",
          "name": "hashedPassword",
          "type": "bytes32"
        },
        {
          "internalType": "uint256",
          "name": "amount",
          "type": "uint256"
        },
        {
          "internalType": "address",
          "name": "tokenAddress",
          "type": "address"
        },
        {
          "internalType": "contract IPool",
          "name": "pool",
          "type": "address"
        },
        {
          "internalType": "uint256",
          "name": "withdrawableAt",
          "type": "uint256"
        },
        {
          "internalType": "bool",
          "name": "claimed",
          "type": "bool"
        },
        {
          "internalType": "bool",
          "name": "checkEligibility",
          "type": "bool"
        },
        {
          "internalType": "uint256",
          "name": "batchId",
          "type": "uint256"
        }
      ],
      "stateMutability": "view",
      "type": "function"
    },
    {
      "inputs": [
        {
          "internalType": "uint256",
          "name": "tokenId",
          "type": "uint256"
        }
      ],
      "name": "getApproved",
      "outputs": [
        {
          "internalType": "address",
          "name": "",
          "type": "address"
        }
      ],
      "stateMutability": "view",
      "type": "function"
    },
    {
      "inputs": [],
      "name": "getDepositCount",
      "outputs": [
        {
          "internalType": "uint256",
          "name": "",
          "type": "uint256"
        }
      ],
      "stateMutability": "view",
      "type": "function"
    },
    {
      "inputs": [
        {
          "internalType": "string",
          "name": "password",
          "type": "string"
        }
      ],
      "name": "hashPassword",
      "outputs": [
        {
          "internalType": "bytes32",
          "name": "",
          "type": "bytes32"
        }
      ],
      "stateMutability": "pure",
      "type": "function"
    },
    {
      "inputs": [
        {
          "internalType": "address",
          "name": "owner",
          "type": "address"
        },
        {
          "internalType": "address",
          "name": "operator",
          "type": "address"
        }
      ],
      "name": "isApprovedForAll",
      "outputs": [
        {
          "internalType": "bool",
          "name": "",
          "type": "bool"
        }
      ],
      "stateMutability": "view",
      "type": "function"
    },
    {
      "inputs": [],
      "name": "name",
      "outputs": [
        {
          "internalType": "string",
          "name": "",
          "type": "string"
        }
      ],
      "stateMutability": "view",
      "type": "function"
    },
    {
      "inputs": [
        {
          "internalType": "uint256",
          "name": "tokenId",
          "type": "uint256"
        }
      ],
      "name": "ownerOf",
      "outputs": [
        {
          "internalType": "address",
          "name": "",
          "type": "address"
        }
      ],
      "stateMutability": "view",
      "type": "function"
    },
    {
      "inputs": [
        {
          "internalType": "address",
          "name": "from",
          "type": "address"
        },
        {
          "internalType": "address",
          "name": "to",
          "type": "address"
        },
        {
          "internalType": "uint256",
          "name": "tokenId",
          "type": "uint256"
        }
      ],
      "name": "safeTransferFrom",
      "outputs": [],
      "stateMutability": "nonpayable",
      "type": "function"
    },
    {
      "inputs": [
        {
          "internalType": "address",
          "name": "from",
          "type": "address"
        },
        {
          "internalType": "address",
          "name": "to",
          "type": "address"
        },
        {
          "internalType": "uint256",
          "name": "tokenId",
          "type": "uint256"
        },
        {
          "internalType": "bytes",
          "name": "data",
          "type": "bytes"
        }
      ],
      "name": "safeTransferFrom",
      "outputs": [],
      "stateMutability": "nonpayable",
      "type": "function"
    },
    {
      "inputs": [
        {
          "internalType": "address",
          "name": "operator",
          "type": "address"
        },
        {
          "internalType": "bool",
          "name": "approved",
          "type": "bool"
        }
      ],
      "name": "setApprovalForAll",
      "outputs": [],
      "stateMutability": "nonpayable",
      "type": "function"
    },
    {
      "inputs": [
        {
          "internalType": "bytes4",
          "name": "interfaceId",
          "type": "bytes4"
        }
      ],
      "name": "supportsInterface",
      "outputs": [
        {
          "internalType": "bool",
          "name": "",
          "type": "bool"
        }
      ],
      "stateMutability": "view",
      "type": "function"
    },
    {
      "inputs": [],
      "name": "symbol",
      "outputs": [
        {
          "internalType": "string",
          "name": "",
          "type": "string"
        }
      ],
      "stateMutability": "view",
      "type": "function"
    },
    {
      "inputs": [
        {
          "internalType": "uint256",
          "name": "tokenId",
          "type": "uint256"
        }
      ],
      "name": "tokenURI",
      "outputs": [
        {
          "internalType": "string",
          "name": "",
          "type": "string"
        }
      ],
      "stateMutability": "view",
      "type": "function"
    },
    {
      "inputs": [
        {
          "internalType": "address",
          "name": "from",
          "type": "address"
        },
        {
          "internalType": "address",
          "name": "to",
          "type": "address"
        },
        {
          "internalType": "uint256",
          "name": "tokenId",
          "type": "uint256"
        }
      ],
      "name": "transferFrom",
      "outputs": [],
      "stateMutability": "nonpayable",
      "type": "function"
    },
    {
      "inputs": [
        {
          "internalType": "uint256",
          "name": "_depositId",
          "type": "uint256"
        },
        {
          "internalType": "string",
          "name": "_password",
          "type": "string"
        }
      ],
      "name": "viewDeposit",
      "outputs": [
        {
          "internalType": "uint256",
          "name": "",
          "type": "uint256"
        },
        {
          "internalType": "address",
          "name": "",
          "type": "address"
        },
        {
          "internalType": "uint256",
          "name": "",
          "type": "uint256"
        }
      ],
      "stateMutability": "nonpayable",
      "type": "function"
    },
    {
      "inputs": [
        {
          "internalType": "uint256",
          "name": "_depositId",
          "type": "uint256"
        },
        {
          "internalType": "uint256",
          "name": "_amount",
          "type": "uint256"
        }
      ],
      "name": "withdrawDeposit",
      "outputs": [],
      "stateMutability": "nonpayable",
      "type": "function"
    }
  ],
  "bytecode": "0x608060405260006006553480156200001657600080fd5b506040518060400160405280600981526020017f416c70686144726f7000000000000000000000000000000000000000000000008152506040518060400160405280600281526020017f4144000000000000000000000000000000000000000000000000000000000000815250816000908162000094919062000329565b508060019081620000a6919062000329565b50505062000410565b600081519050919050565b7f4e487b7100000000000000000000000000000000000000000000000000000000600052604160045260246000fd5b7f4e487b7100000000000000000000000000000000000000000000000000000000600052602260045260246000fd5b600060028204905060018216806200013157607f821691505b602082108103620001475762000146620000e9565b5b50919050565b60008190508160005260206000209050919050565b60006020601f8301049050919050565b600082821b905092915050565b600060088302620001b17fffffffffffffffffffffffffffffffffffffffffffffffffffffffffffffffff8262000172565b620001bd868362000172565b95508019841693508086168417925050509392505050565b6000819050919050565b6000819050919050565b60006200020a62000204620001fe84620001d5565b620001df565b620001d5565b9050919050565b6000819050919050565b6200022683620001e9565b6200023e620002358262000211565b8484546200017f565b825550505050565b600090565b6200025562000246565b620002628184846200021b565b505050565b5b818110156200028a576200027e6000826200024b565b60018101905062000268565b5050565b601f821115620002d957620002a3816200014d565b620002ae8462000162565b81016020851015620002be578190505b620002d6620002cd8562000162565b83018262000267565b50505b505050565b600082821c905092915050565b6000620002fe60001984600802620002de565b1980831691505092915050565b6000620003198383620002eb565b9150826002028217905092915050565b6200033482620000af565b67ffffffffffffffff81111562000350576200034f620000ba565b5b6200035c825462000118565b620003698282856200028e565b600060209050601f831160018114620003a157600084156200038c578287015190505b6200039885826200030b565b86555062000408565b601f198416620003b1866200014d565b60005b82811015620003db57848901518255600182019150602085019450602081019050620003b4565b86831015620003fb5784890151620003f7601f891682620002eb565b8355505b6001600288020188555050505b505050505050565b613af280620004206000396000f3fe60806040526004361061012a5760003560e01c80636352211e116100ab578063a22cb4651161006f578063a22cb46514610421578063b02c43d01461044a578063b88d4fde1461048f578063bae04c9a146104b8578063c87b56dd146104e1578063e985e9c51461051e5761012a565b80636352211e1461032657806370a082311461036357806378bede29146103a05780639363a141146103cb57806395d89b41146103f65761012a565b80633f75a07d116100f25780633f75a07d1461022657806342842e0e1461026357806342a7148a1461028c578063606c1976146102cb57806361f357d9146102e75761012a565b806301ffc9a71461012f57806306fdde031461016c578063081812fc14610197578063095ea7b3146101d457806323b872dd146101fd575b600080fd5b34801561013b57600080fd5b50610156600480360381019061015191906126cb565b61055b565b6040516101639190612713565b60405180910390f35b34801561017857600080fd5b5061018161063d565b60405161018e91906127be565b60405180910390f35b3480156101a357600080fd5b506101be60048036038101906101b99190612816565b6106cf565b6040516101cb9190612884565b60405180910390f35b3480156101e057600080fd5b506101fb60048036038101906101f691906128cb565b6106eb565b005b34801561020957600080fd5b50610224600480360381019061021f919061290b565b610701565b005b34801561023257600080fd5b5061024d60048036038101906102489190612a93565b610803565b60405161025a9190612af5565b60405180910390f35b34801561026f57600080fd5b5061028a6004803603810190610285919061290b565b610838565b005b34801561029857600080fd5b506102b360048036038101906102ae9190612b10565b610858565b6040516102c293929190612b7b565b60405180910390f35b6102e560048036038101906102e09190612d10565b6109f0565b005b3480156102f357600080fd5b5061030e60048036038101906103099190612b10565b610f50565b60405161031d93929190612b7b565b60405180910390f35b34801561033257600080fd5b5061034d60048036038101906103489190612816565b61127b565b60405161035a9190612884565b60405180910390f35b34801561036f57600080fd5b5061038a60048036038101906103859190612dce565b61128d565b6040516103979190612dfb565b60405180910390f35b3480156103ac57600080fd5b506103b5611347565b6040516103c29190612dfb565b60405180910390f35b3480156103d757600080fd5b506103e061134d565b6040516103ed9190612dfb565b60405180910390f35b34801561040257600080fd5b5061040b61135a565b60405161041891906127be565b60405180910390f35b34801561042d57600080fd5b5061044860048036038101906104439190612e16565b6113ec565b005b34801561045657600080fd5b50610471600480360381019061046c9190612816565b611402565b60405161048699989796959493929190612eb5565b60405180910390f35b34801561049b57600080fd5b506104b660048036038101906104b19190612fe3565b6114da565b005b3480156104c457600080fd5b506104df60048036038101906104da9190613066565b6114f7565b005b3480156104ed57600080fd5b5061050860048036038101906105039190612816565b6117e7565b60405161051591906127be565b60405180910390f35b34801561052a57600080fd5b50610545600480360381019061054091906130a6565b611850565b6040516105529190612713565b60405180910390f35b60007f80ac58cd000000000000000000000000000000000000000000000000000000007bffffffffffffffffffffffffffffffffffffffffffffffffffffffff1916827bffffffffffffffffffffffffffffffffffffffffffffffffffffffff1916148061062657507f5b5e139f000000000000000000000000000000000000000000000000000000007bffffffffffffffffffffffffffffffffffffffffffffffffffffffff1916827bffffffffffffffffffffffffffffffffffffffffffffffffffffffff1916145b806106365750610635826118e4565b5b9050919050565b60606000805461064c90613115565b80601f016020809104026020016040519081016040528092919081815260200182805461067890613115565b80156106c55780601f1061069a576101008083540402835291602001916106c5565b820191906000526020600020905b8154815290600101906020018083116106a857829003601f168201915b5050505050905090565b60006106da8261194e565b506106e4826119d6565b9050919050565b6106fd82826106f8611a13565b611a1b565b5050565b600073ffffffffffffffffffffffffffffffffffffffff168273ffffffffffffffffffffffffffffffffffffffff16036107735760006040517f64a0ae9200000000000000000000000000000000000000000000000000000000815260040161076a9190612884565b60405180910390fd5b60006107878383610782611a13565b611a2d565b90508373ffffffffffffffffffffffffffffffffffffffff168173ffffffffffffffffffffffffffffffffffffffff16146107fd578382826040517f64283d7b0000000000000000000000000000000000000000000000000000000081526004016107f493929190613146565b60405180910390fd5b50505050565b6000808260405160200161081791906131b9565b60405160208183030381529060405280519060200120905080915050919050565b610853838383604051806020016040528060008152506114da565b505050565b600080600060078054905085106108a4576040517f08c379a000000000000000000000000000000000000000000000000000000000815260040161089b9061321c565b60405180910390fd5b6000600786815481106108ba576108b961323c565b5b906000526020600020906008020190508060060160009054906101000a900460ff161561091c576040517f08c379a0000000000000000000000000000000000000000000000000000000008152600401610913906132b7565b60405180910390fd5b8460405160200161092d91906131b9565b60405160208183030381529060405280519060200120816001015414610988576040517f08c379a000000000000000000000000000000000000000000000000000000000815260040161097f90613323565b60405180910390fd5b3373ffffffffffffffffffffffffffffffffffffffff16867facb5e5700b5a312da42fca897046d87226094d7032852cc1a3cd9e4c54538b2c83600201546040516109d39190612dfb565b60405180910390a385338260020154935093509350509250925092565b6000875111610a34576040517f08c379a0000000000000000000000000000000000000000000000000000000008152600401610a2b9061338f565b60405180910390fd5b60008311610a77576040517f08c379a0000000000000000000000000000000000000000000000000000000008152600401610a6e90613421565b60405180910390fd5b60008490508684610a889190613470565b8173ffffffffffffffffffffffffffffffffffffffff166370a08231336040518263ffffffff1660e01b8152600401610ac19190612884565b602060405180830381865afa158015610ade573d6000803e3d6000fd5b505050506040513d601f19601f82011682018060405250810190610b0291906134c7565b11610b0c57600080fd5b600160066000828254610b1f91906134f4565b9250508190555060006006549050600073ffffffffffffffffffffffffffffffffffffffff168673ffffffffffffffffffffffffffffffffffffffff1614610c735760003414610ba4576040517f08c379a0000000000000000000000000000000000000000000000000000000008152600401610b9b9061359a565b60405180910390fd5b8173ffffffffffffffffffffffffffffffffffffffff166323b872dd33308b89610bce9190613470565b6040518463ffffffff1660e01b8152600401610bec939291906135ba565b6020604051808303816000875af1158015610c0b573d6000803e3d6000fd5b505050506040513d601f19601f82011682018060405250810190610c2f9190613606565b610c6e576040517f08c379a0000000000000000000000000000000000000000000000000000000008152600401610c659061367f565b60405180910390fd5b610cba565b60003411610cb6576040517f08c379a0000000000000000000000000000000000000000000000000000000008152600401610cad906136eb565b60405180910390fd5b3494505b60005b88811015610f445760076040518061012001604052803373ffffffffffffffffffffffffffffffffffffffff1681526020018c8481518110610d0257610d0161323c565b5b602002602001015181526020018881526020018973ffffffffffffffffffffffffffffffffffffffff1681526020018773ffffffffffffffffffffffffffffffffffffffff1681526020018a8152602001600015158152602001861515815260200184815250908060018154018082558091505060019003906000526020600020906008020160009091909190915060008201518160000160006101000a81548173ffffffffffffffffffffffffffffffffffffffff021916908373ffffffffffffffffffffffffffffffffffffffff160217905550602082015181600101556040820151816002015560608201518160030160006101000a81548173ffffffffffffffffffffffffffffffffffffffff021916908373ffffffffffffffffffffffffffffffffffffffff16021790555060808201518160040160006101000a81548173ffffffffffffffffffffffffffffffffffffffff021916908373ffffffffffffffffffffffffffffffffffffffff16021790555060a0820151816005015560c08201518160060160006101000a81548160ff02191690831515021790555060e08201518160060160016101000a81548160ff0219169083151502179055506101008201518160070155505060006001600780549050610ee5919061370b565b90503373ffffffffffffffffffffffffffffffffffffffff16817fbe57b55595bfb8f6ba81e2e42dddbd5c7e0661ad3e3ea41ebe1787c121964dac89604051610f2e9190612dfb565b60405180910390a3508080600101915050610cbd565b50505050505050505050565b60008060006007805490508510610f9c576040517f08c379a0000000000000000000000000000000000000000000000000000000008152600401610f939061321c565b60405180910390fd5b600060078681548110610fb257610fb161323c565b5b906000526020600020906008020190508060060160009054906101000a900460ff1615611014576040517f08c379a000000000000000000000000000000000000000000000000000000000815260040161100b906132b7565b60405180910390fd5b8460405160200161102591906131b9565b60405160208183030381529060405280519060200120816001015414611080576040517f08c379a000000000000000000000000000000000000000000000000000000000815260040161107790613323565b60405180910390fd5b60008160040160009054906101000a900473ffffffffffffffffffffffffffffffffffffffff16905060008260030160009054906101000a900473ffffffffffffffffffffffffffffffffffffffff1690508073ffffffffffffffffffffffffffffffffffffffff1663095ea7b38385600201546040518363ffffffff1660e01b815260040161111192919061373f565b6020604051808303816000875af1158015611130573d6000803e3d6000fd5b505050506040513d601f19601f820116820180604052508101906111549190613606565b508173ffffffffffffffffffffffffffffffffffffffff16636e553f6584600201548560030160009054906101000a900473ffffffffffffffffffffffffffffffffffffffff166040518363ffffffff1660e01b81526004016111b8929190613768565b600060405180830381600087803b1580156111d257600080fd5b505af11580156111e6573d6000803e3d6000fd5b505050506111f43389611c47565b60018360060160006101000a81548160ff0219169083151502179055503373ffffffffffffffffffffffffffffffffffffffff16887facb5e5700b5a312da42fca897046d87226094d7032852cc1a3cd9e4c54538b2c856002015460405161125c9190612dfb565b60405180910390a3873384600201549550955095505050509250925092565b60006112868261194e565b9050919050565b60008073ffffffffffffffffffffffffffffffffffffffff168273ffffffffffffffffffffffffffffffffffffffff16036113005760006040517f89c62b640000000000000000000000000000000000000000000000000000000081526004016112f79190612884565b60405180910390fd5b600360008373ffffffffffffffffffffffffffffffffffffffff1673ffffffffffffffffffffffffffffffffffffffff168152602001908152602001600020549050919050565b60065481565b6000600780549050905090565b60606001805461136990613115565b80601f016020809104026020016040519081016040528092919081815260200182805461139590613115565b80156113e25780601f106113b7576101008083540402835291602001916113e2565b820191906000526020600020905b8154815290600101906020018083116113c557829003601f168201915b5050505050905090565b6113fe6113f7611a13565b8383611c65565b5050565b6007818154811061141257600080fd5b90600052602060002090600802016000915090508060000160009054906101000a900473ffffffffffffffffffffffffffffffffffffffff16908060010154908060020154908060030160009054906101000a900473ffffffffffffffffffffffffffffffffffffffff16908060040160009054906101000a900473ffffffffffffffffffffffffffffffffffffffff16908060050154908060060160009054906101000a900460ff16908060060160019054906101000a900460ff16908060070154905089565b6114e5848484610701565b6114f184848484611dd4565b50505050565b600780549050821061153e576040517f08c379a00000000000000000000000000000000000000000000000000000000081526004016115359061321c565b60405180910390fd5b6000600783815481106115545761155361323c565b5b906000526020600020906008020190503373ffffffffffffffffffffffffffffffffffffffff166115848461127b565b73ffffffffffffffffffffffffffffffffffffffff16146115da576040517f08c379a00000000000000000000000000000000000000000000000000000000081526004016115d1906137dd565b60405180910390fd5b8060060160009054906101000a900460ff1661162b576040517f08c379a000000000000000000000000000000000000000000000000000000000815260040161162290613849565b60405180910390fd5b8181600201541015611672576040517f08c379a0000000000000000000000000000000000000000000000000000000008152600401611669906138b5565b60405180910390fd5b80600501544210156116b9576040517f08c379a00000000000000000000000000000000000000000000000000000000081526004016116b090613921565b60405180910390fd5b60008160040160009054906101000a900473ffffffffffffffffffffffffffffffffffffffff1690508073ffffffffffffffffffffffffffffffffffffffff166323e103a8848460030160009054906101000a900473ffffffffffffffffffffffffffffffffffffffff1630336040518563ffffffff1660e01b81526004016117459493929190613941565b600060405180830381600087803b15801561175f57600080fd5b505af1158015611773573d6000803e3d6000fd5b505050508282600201600082825461178b919061370b565b925050819055503373ffffffffffffffffffffffffffffffffffffffff16847facb5e5700b5a312da42fca897046d87226094d7032852cc1a3cd9e4c54538b2c856040516117d99190612dfb565b60405180910390a350505050565b60606117f28261194e565b5060006117fd611f8b565b9050600081511161181d5760405180602001604052806000815250611848565b8061182784611fa2565b604051602001611838929190613986565b6040516020818303038152906040525b915050919050565b6000600560008473ffffffffffffffffffffffffffffffffffffffff1673ffffffffffffffffffffffffffffffffffffffff16815260200190815260200160002060008373ffffffffffffffffffffffffffffffffffffffff1673ffffffffffffffffffffffffffffffffffffffff16815260200190815260200160002060009054906101000a900460ff16905092915050565b60007f01ffc9a7000000000000000000000000000000000000000000000000000000007bffffffffffffffffffffffffffffffffffffffffffffffffffffffff1916827bffffffffffffffffffffffffffffffffffffffffffffffffffffffff1916149050919050565b60008061195a83612070565b9050600073ffffffffffffffffffffffffffffffffffffffff168173ffffffffffffffffffffffffffffffffffffffff16036119cd57826040517f7e2732890000000000000000000000000000000000000000000000000000000081526004016119c49190612dfb565b60405180910390fd5b80915050919050565b60006004600083815260200190815260200160002060009054906101000a900473ffffffffffffffffffffffffffffffffffffffff169050919050565b600033905090565b611a2883838360016120ad565b505050565b600080611a3984612070565b9050600073ffffffffffffffffffffffffffffffffffffffff168373ffffffffffffffffffffffffffffffffffffffff1614611a7b57611a7a818486612272565b5b600073ffffffffffffffffffffffffffffffffffffffff168173ffffffffffffffffffffffffffffffffffffffff1614611b0c57611abd6000856000806120ad565b6001600360008373ffffffffffffffffffffffffffffffffffffffff1673ffffffffffffffffffffffffffffffffffffffff168152602001908152602001600020600082825403925050819055505b600073ffffffffffffffffffffffffffffffffffffffff168573ffffffffffffffffffffffffffffffffffffffff1614611b8f576001600360008773ffffffffffffffffffffffffffffffffffffffff1673ffffffffffffffffffffffffffffffffffffffff168152602001908152602001600020600082825401925050819055505b846002600086815260200190815260200160002060006101000a81548173ffffffffffffffffffffffffffffffffffffffff021916908373ffffffffffffffffffffffffffffffffffffffff160217905550838573ffffffffffffffffffffffffffffffffffffffff168273ffffffffffffffffffffffffffffffffffffffff167fddf252ad1be2c89b69c2b068fc378daa952ba7f163c4a11628f55a4df523b3ef60405160405180910390a4809150509392505050565b611c61828260405180602001604052806000815250612336565b5050565b600073ffffffffffffffffffffffffffffffffffffffff168273ffffffffffffffffffffffffffffffffffffffff1603611cd657816040517f5b08ba18000000000000000000000000000000000000000000000000000000008152600401611ccd9190612884565b60405180910390fd5b80600560008573ffffffffffffffffffffffffffffffffffffffff1673ffffffffffffffffffffffffffffffffffffffff16815260200190815260200160002060008473ffffffffffffffffffffffffffffffffffffffff1673ffffffffffffffffffffffffffffffffffffffff16815260200190815260200160002060006101000a81548160ff0219169083151502179055508173ffffffffffffffffffffffffffffffffffffffff168373ffffffffffffffffffffffffffffffffffffffff167f17307eab39ab6107e8899845ad3d59bd9653f200f220920489ca2b5937696c3183604051611dc79190612713565b60405180910390a3505050565b60008373ffffffffffffffffffffffffffffffffffffffff163b1115611f85578273ffffffffffffffffffffffffffffffffffffffff1663150b7a02611e18611a13565b8685856040518563ffffffff1660e01b8152600401611e3a94939291906139ff565b6020604051808303816000875af1925050508015611e7657506040513d601f19601f82011682018060405250810190611e739190613a60565b60015b611efa573d8060008114611ea6576040519150601f19603f3d011682016040523d82523d6000602084013e611eab565b606091505b506000815103611ef257836040517f64a0ae92000000000000000000000000000000000000000000000000000000008152600401611ee99190612884565b60405180910390fd5b805181602001fd5b63150b7a0260e01b7bffffffffffffffffffffffffffffffffffffffffffffffffffffffff1916817bffffffffffffffffffffffffffffffffffffffffffffffffffffffff191614611f8357836040517f64a0ae92000000000000000000000000000000000000000000000000000000008152600401611f7a9190612884565b60405180910390fd5b505b50505050565b606060405180602001604052806000815250905090565b606060006001611fb184612352565b01905060008167ffffffffffffffff811115611fd057611fcf612968565b5b6040519080825280601f01601f1916602001820160405280156120025781602001600182028036833780820191505090505b509050600082602001820190505b600115612065578080600190039150507f3031323334353637383961626364656600000000000000000000000000000000600a86061a8153600a858161205957612058613a8d565b5b04945060008503612010575b819350505050919050565b60006002600083815260200190815260200160002060009054906101000a900473ffffffffffffffffffffffffffffffffffffffff169050919050565b80806120e65750600073ffffffffffffffffffffffffffffffffffffffff168273ffffffffffffffffffffffffffffffffffffffff1614155b1561221a5760006120f68461194e565b9050600073ffffffffffffffffffffffffffffffffffffffff168373ffffffffffffffffffffffffffffffffffffffff161415801561216157508273ffffffffffffffffffffffffffffffffffffffff168173ffffffffffffffffffffffffffffffffffffffff1614155b801561217457506121728184611850565b155b156121b657826040517fa9fbf51f0000000000000000000000000000000000000000000000000000000081526004016121ad9190612884565b60405180910390fd5b811561221857838573ffffffffffffffffffffffffffffffffffffffff168273ffffffffffffffffffffffffffffffffffffffff167f8c5be1e5ebec7d5bd14f71427d1e84f3dd0314c0f7b2291e5b200ac8c7c3b92560405160405180910390a45b505b836004600085815260200190815260200160002060006101000a81548173ffffffffffffffffffffffffffffffffffffffff021916908373ffffffffffffffffffffffffffffffffffffffff16021790555050505050565b61227d8383836124a5565b61233157600073ffffffffffffffffffffffffffffffffffffffff168373ffffffffffffffffffffffffffffffffffffffff16036122f257806040517f7e2732890000000000000000000000000000000000000000000000000000000081526004016122e99190612dfb565b60405180910390fd5b81816040517f177e802f00000000000000000000000000000000000000000000000000000000815260040161232892919061373f565b60405180910390fd5b505050565b6123408383612566565b61234d6000848484611dd4565b505050565b600080600090507a184f03e93ff9f4daa797ed6e38ed64bf6a1f01000000000000000083106123b0577a184f03e93ff9f4daa797ed6e38ed64bf6a1f01000000000000000083816123a6576123a5613a8d565b5b0492506040810190505b6d04ee2d6d415b85acef810000000083106123ed576d04ee2d6d415b85acef810000000083816123e3576123e2613a8d565b5b0492506020810190505b662386f26fc10000831061241c57662386f26fc10000838161241257612411613a8d565b5b0492506010810190505b6305f5e1008310612445576305f5e100838161243b5761243a613a8d565b5b0492506008810190505b612710831061246a5761271083816124605761245f613a8d565b5b0492506004810190505b6064831061248d576064838161248357612482613a8d565b5b0492506002810190505b600a831061249c576001810190505b80915050919050565b60008073ffffffffffffffffffffffffffffffffffffffff168373ffffffffffffffffffffffffffffffffffffffff161415801561255d57508273ffffffffffffffffffffffffffffffffffffffff168473ffffffffffffffffffffffffffffffffffffffff16148061251e575061251d8484611850565b5b8061255c57508273ffffffffffffffffffffffffffffffffffffffff16612544836119d6565b73ffffffffffffffffffffffffffffffffffffffff16145b5b90509392505050565b600073ffffffffffffffffffffffffffffffffffffffff168273ffffffffffffffffffffffffffffffffffffffff16036125d85760006040517f64a0ae920000000000000000000000000000000000000000000000000000000081526004016125cf9190612884565b60405180910390fd5b60006125e683836000611a2d565b9050600073ffffffffffffffffffffffffffffffffffffffff168173ffffffffffffffffffffffffffffffffffffffff161461265a5760006040517f73c6ac6e0000000000000000000000000000000000000000000000000000000081526004016126519190612884565b60405180910390fd5b505050565b6000604051905090565b600080fd5b600080fd5b60007fffffffff0000000000000000000000000000000000000000000000000000000082169050919050565b6126a881612673565b81146126b357600080fd5b50565b6000813590506126c58161269f565b92915050565b6000602082840312156126e1576126e0612669565b5b60006126ef848285016126b6565b91505092915050565b60008115159050919050565b61270d816126f8565b82525050565b60006020820190506127286000830184612704565b92915050565b600081519050919050565b600082825260208201905092915050565b60005b8381101561276857808201518184015260208101905061274d565b60008484015250505050565b6000601f19601f8301169050919050565b60006127908261272e565b61279a8185612739565b93506127aa81856020860161274a565b6127b381612774565b840191505092915050565b600060208201905081810360008301526127d88184612785565b905092915050565b6000819050919050565b6127f3816127e0565b81146127fe57600080fd5b50565b600081359050612810816127ea565b92915050565b60006020828403121561282c5761282b612669565b5b600061283a84828501612801565b91505092915050565b600073ffffffffffffffffffffffffffffffffffffffff82169050919050565b600061286e82612843565b9050919050565b61287e81612863565b82525050565b60006020820190506128996000830184612875565b92915050565b6128a881612863565b81146128b357600080fd5b50565b6000813590506128c58161289f565b92915050565b600080604083850312156128e2576128e1612669565b5b60006128f0858286016128b6565b925050602061290185828601612801565b9150509250929050565b60008060006060848603121561292457612923612669565b5b6000612932868287016128b6565b9350506020612943868287016128b6565b925050604061295486828701612801565b9150509250925092565b600080fd5b600080fd5b7f4e487b7100000000000000000000000000000000000000000000000000000000600052604160045260246000fd5b6129a082612774565b810181811067ffffffffffffffff821117156129bf576129be612968565b5b80604052505050565b60006129d261265f565b90506129de8282612997565b919050565b600067ffffffffffffffff8211156129fe576129fd612968565b5b612a0782612774565b9050602081019050919050565b82818337600083830152505050565b6000612a36612a31846129e3565b6129c8565b905082815260208101848484011115612a5257612a51612963565b5b612a5d848285612a14565b509392505050565b600082601f830112612a7a57612a7961295e565b5b8135612a8a848260208601612a23565b91505092915050565b600060208284031215612aa957612aa8612669565b5b600082013567ffffffffffffffff811115612ac757612ac661266e565b5b612ad384828501612a65565b91505092915050565b6000819050919050565b612aef81612adc565b82525050565b6000602082019050612b0a6000830184612ae6565b92915050565b60008060408385031215612b2757612b26612669565b5b6000612b3585828601612801565b925050602083013567ffffffffffffffff811115612b5657612b5561266e565b5b612b6285828601612a65565b9150509250929050565b612b75816127e0565b82525050565b6000606082019050612b906000830186612b6c565b612b9d6020830185612875565b612baa6040830184612b6c565b949350505050565b600067ffffffffffffffff821115612bcd57612bcc612968565b5b602082029050602081019050919050565b600080fd5b612bec81612adc565b8114612bf757600080fd5b50565b600081359050612c0981612be3565b92915050565b6000612c22612c1d84612bb2565b6129c8565b90508083825260208201905060208402830185811115612c4557612c44612bde565b5b835b81811015612c6e5780612c5a8882612bfa565b845260208401935050602081019050612c47565b5050509392505050565b600082601f830112612c8d57612c8c61295e565b5b8135612c9d848260208601612c0f565b91505092915050565b6000612cb182612863565b9050919050565b612cc181612ca6565b8114612ccc57600080fd5b50565b600081359050612cde81612cb8565b92915050565b612ced816126f8565b8114612cf857600080fd5b50565b600081359050612d0a81612ce4565b92915050565b600080600080600080600060e0888a031215612d2f57612d2e612669565b5b600088013567ffffffffffffffff811115612d4d57612d4c61266e565b5b612d598a828b01612c78565b9750506020612d6a8a828b01612801565b9650506040612d7b8a828b01612801565b9550506060612d8c8a828b016128b6565b9450506080612d9d8a828b01612801565b93505060a0612dae8a828b01612ccf565b92505060c0612dbf8a828b01612cfb565b91505092959891949750929550565b600060208284031215612de457612de3612669565b5b6000612df2848285016128b6565b91505092915050565b6000602082019050612e106000830184612b6c565b92915050565b60008060408385031215612e2d57612e2c612669565b5b6000612e3b858286016128b6565b9250506020612e4c85828601612cfb565b9150509250929050565b6000819050919050565b6000612e7b612e76612e7184612843565b612e56565b612843565b9050919050565b6000612e8d82612e60565b9050919050565b6000612e9f82612e82565b9050919050565b612eaf81612e94565b82525050565b600061012082019050612ecb600083018c612875565b612ed8602083018b612ae6565b612ee5604083018a612b6c565b612ef26060830189612875565b612eff6080830188612ea6565b612f0c60a0830187612b6c565b612f1960c0830186612704565b612f2660e0830185612704565b612f34610100830184612b6c565b9a9950505050505050505050565b600067ffffffffffffffff821115612f5d57612f5c612968565b5b612f6682612774565b9050602081019050919050565b6000612f86612f8184612f42565b6129c8565b905082815260208101848484011115612fa257612fa1612963565b5b612fad848285612a14565b509392505050565b600082601f830112612fca57612fc961295e565b5b8135612fda848260208601612f73565b91505092915050565b60008060008060808587031215612ffd57612ffc612669565b5b600061300b878288016128b6565b945050602061301c878288016128b6565b935050604061302d87828801612801565b925050606085013567ffffffffffffffff81111561304e5761304d61266e565b5b61305a87828801612fb5565b91505092959194509250565b6000806040838503121561307d5761307c612669565b5b600061308b85828601612801565b925050602061309c85828601612801565b9150509250929050565b600080604083850312156130bd576130bc612669565b5b60006130cb858286016128b6565b92505060206130dc858286016128b6565b9150509250929050565b7f4e487b7100000000000000000000000000000000000000000000000000000000600052602260045260246000fd5b6000600282049050600182168061312d57607f821691505b6020821081036131405761313f6130e6565b5b50919050565b600060608201905061315b6000830186612875565b6131686020830185612b6c565b6131756040830184612875565b949350505050565b600081905092915050565b60006131938261272e565b61319d818561317d565b93506131ad81856020860161274a565b80840191505092915050565b60006131c58284613188565b915081905092915050565b7f4465706f736974204944206f7574206f662072616e6765000000000000000000600082015250565b6000613206601783612739565b9150613211826131d0565b602082019050919050565b60006020820190508181036000830152613235816131f9565b9050919050565b7f4e487b7100000000000000000000000000000000000000000000000000000000600052603260045260246000fd5b7f4465706f73697420616c726561647920636c61696d6564000000000000000000600082015250565b60006132a1601783612739565b91506132ac8261326b565b602082019050919050565b600060208201905081810360008301526132d081613294565b9050919050565b7f496e76616c69642070617373776f726400000000000000000000000000000000600082015250565b600061330d601083612739565b9150613318826132d7565b602082019050919050565b6000602082019050818103600083015261333c81613300565b9050919050565b7f4e6f206861736865642070617373776f7264732070726f766964656400000000600082015250565b6000613379601c83612739565b915061338482613343565b602082019050919050565b600060208201905081810360008301526133a88161336c565b9050919050565b7f546f6b656e20616d6f756e74206d75737420626520677265617465722074686160008201527f6e207a65726f0000000000000000000000000000000000000000000000000000602082015250565b600061340b602683612739565b9150613416826133af565b604082019050919050565b6000602082019050818103600083015261343a816133fe565b9050919050565b7f4e487b7100000000000000000000000000000000000000000000000000000000600052601160045260246000fd5b600061347b826127e0565b9150613486836127e0565b9250828202613494816127e0565b915082820484148315176134ab576134aa613441565b5b5092915050565b6000815190506134c1816127ea565b92915050565b6000602082840312156134dd576134dc612669565b5b60006134eb848285016134b2565b91505092915050565b60006134ff826127e0565b915061350a836127e0565b925082820190508082111561352257613521613441565b5b92915050565b7f43616e6e6f74206465706f73697420626f74682045544820616e64204552433260008201527f3020746f6b656e00000000000000000000000000000000000000000000000000602082015250565b6000613584602783612739565b915061358f82613528565b604082019050919050565b600060208201905081810360008301526135b381613577565b9050919050565b60006060820190506135cf6000830186612875565b6135dc6020830185612875565b6135e96040830184612b6c565b949350505050565b60008151905061360081612ce4565b92915050565b60006020828403121561361c5761361b612669565b5b600061362a848285016135f1565b91505092915050565b7f4661696c656420746f207472616e7366657220455243323020746f6b656e0000600082015250565b6000613669601e83612739565b915061367482613633565b602082019050919050565b600060208201905081810360008301526136988161365c565b9050919050565b7f4e6f204554482073656e74000000000000000000000000000000000000000000600082015250565b60006136d5600b83612739565b91506136e08261369f565b602082019050919050565b60006020820190508181036000830152613704816136c8565b9050919050565b6000613716826127e0565b9150613721836127e0565b925082820390508181111561373957613738613441565b5b92915050565b60006040820190506137546000830185612875565b6137616020830184612b6c565b9392505050565b600060408201905061377d6000830185612b6c565b61378a6020830184612875565b9392505050565b7f4e6f74206f776e6572206f66206465706f736974000000000000000000000000600082015250565b60006137c7601483612739565b91506137d282613791565b602082019050919050565b600060208201905081810360008301526137f6816137ba565b9050919050565b7f4465706f736974206d75737420626520636c61696d6564000000000000000000600082015250565b6000613833601783612739565b915061383e826137fd565b602082019050919050565b6000602082019050818103600083015261386281613826565b9050919050565b7f4e6f7420656e6f7567682066756e647300000000000000000000000000000000600082015250565b600061389f601083612739565b91506138aa82613869565b602082019050919050565b600060208201905081810360008301526138ce81613892565b9050919050565b7f4465706f736974206e6f742079657420776974686472617761626c6500000000600082015250565b600061390b601c83612739565b9150613916826138d5565b602082019050919050565b6000602082019050818103600083015261393a816138fe565b9050919050565b60006080820190506139566000830187612b6c565b6139636020830186612875565b6139706040830185612875565b61397d6060830184612875565b95945050505050565b60006139928285613188565b915061399e8284613188565b91508190509392505050565b600081519050919050565b600082825260208201905092915050565b60006139d1826139aa565b6139db81856139b5565b93506139eb81856020860161274a565b6139f481612774565b840191505092915050565b6000608082019050613a146000830187612875565b613a216020830186612875565b613a2e6040830185612b6c565b8181036060830152613a4081846139c6565b905095945050505050565b600081519050613a5a8161269f565b92915050565b600060208284031215613a7657613a75612669565b5b6000613a8484828501613a4b565b91505092915050565b7f4e487b7100000000000000000000000000000000000000000000000000000000600052601260045260246000fdfea26469706673582212209fe3102685eaae2006ef643ad4d66b6b5f4f5812974b50ddad77820dc9387b8e64736f6c63430008180033",
  "linkReferences": {},
  "deployedLinkReferences": {}
}