{
  "_format": "hh-sol-artifact-1",
  "contractName": "LendingFi",
  "sourceName": "contracts/LendingFi.sol",
  "abi": [
    {
      "inputs": [
        {
          "internalType": "address",
          "name": "_borrowedToken",
          "type": "address"
        },
        {
          "internalType": "uint256",
          "name": "_collateralRatio",
          "type": "uint256"
        }
      ],
      "stateMutability": "nonpayable",
      "type": "constructor"
    },
    {
      "anonymous": false,
      "inputs": [
        {
          "indexed": true,
          "internalType": "address",
          "name": "user",
          "type": "address"
        },
        {
          "indexed": false,
          "internalType": "uint256",
          "name": "amount",
          "type": "uint256"
        }
      ],
      "name": "Borrow",
      "type": "event"
    },
    {
      "anonymous": false,
      "inputs": [
        {
          "indexed": true,
          "internalType": "address",
          "name": "user",
          "type": "address"
        },
        {
          "indexed": false,
          "internalType": "uint256",
          "name": "amount",
          "type": "uint256"
        }
      ],
      "name": "Deposit",
      "type": "event"
    },
    {
      "inputs": [
        {
          "internalType": "uint256",
          "name": "amount",
          "type": "uint256"
        }
      ],
      "name": "borrow",
      "outputs": [],
      "stateMutability": "nonpayable",
      "type": "function"
    },
    {
      "inputs": [
        {
          "internalType": "address",
          "name": "",
          "type": "address"
        }
      ],
      "name": "borrowedAmounts",
      "outputs": [
        {
          "internalType": "uint256",
          "name": "",
          "type": "uint256"
        }
      ],
      "stateMutability": "view",
      "type": "function"
    },
    {
      "inputs": [],
      "name": "borrowedToken",
      "outputs": [
        {
          "internalType": "contract IERC20",
          "name": "",
          "type": "address"
        }
      ],
      "stateMutability": "view",
      "type": "function"
    },
    {
      "inputs": [
        {
          "internalType": "address",
          "name": "",
          "type": "address"
        }
      ],
      "name": "collateralBalances",
      "outputs": [
        {
          "internalType": "uint256",
          "name": "",
          "type": "uint256"
        }
      ],
      "stateMutability": "view",
      "type": "function"
    },
    {
      "inputs": [],
      "name": "collateralRatio",
      "outputs": [
        {
          "internalType": "uint256",
          "name": "",
          "type": "uint256"
        }
      ],
      "stateMutability": "view",
      "type": "function"
    },
    {
      "inputs": [
        {
          "internalType": "uint256",
          "name": "amount",
          "type": "uint256"
        },
        {
          "internalType": "address",
          "name": "collateralToken",
          "type": "address"
        }
      ],
      "name": "deposit",
      "outputs": [],
      "stateMutability": "nonpayable",
      "type": "function"
    },
    {
      "inputs": [
        {
          "internalType": "address",
          "name": "user",
          "type": "address"
        }
      ],
      "name": "getBorrowedAmount",
      "outputs": [
        {
          "internalType": "uint256",
          "name": "",
          "type": "uint256"
        }
      ],
      "stateMutability": "view",
      "type": "function"
    },
    {
      "inputs": [
        {
          "internalType": "address",
          "name": "user",
          "type": "address"
        }
      ],
      "name": "getCollateralBalance",
      "outputs": [
        {
          "internalType": "uint256",
          "name": "",
          "type": "uint256"
        }
      ],
      "stateMutability": "view",
      "type": "function"
    },
    {
      "inputs": [
        {
          "internalType": "uint256",
          "name": "amount",
          "type": "uint256"
        },
        {
          "internalType": "address",
          "name": "collateralToken",
          "type": "address"
        },
        {
          "internalType": "address",
          "name": "caller",
          "type": "address"
        },
        {
          "internalType": "address",
          "name": "receiver",
          "type": "address"
        }
      ],
      "name": "withdraw",
      "outputs": [],
      "stateMutability": "nonpayable",
      "type": "function"
    }
  ],
  "bytecode": "0x60806040523480156200001157600080fd5b50604051620011dd380380620011dd83398181016040528101906200003791906200012c565b81600260006101000a81548173ffffffffffffffffffffffffffffffffffffffff021916908373ffffffffffffffffffffffffffffffffffffffff16021790555080600381905550505062000173565b600080fd5b600073ffffffffffffffffffffffffffffffffffffffff82169050919050565b6000620000b9826200008c565b9050919050565b620000cb81620000ac565b8114620000d757600080fd5b50565b600081519050620000eb81620000c0565b92915050565b6000819050919050565b6200010681620000f1565b81146200011257600080fd5b50565b6000815190506200012681620000fb565b92915050565b6000806040838503121562000146576200014562000087565b5b60006200015685828601620000da565b9250506020620001698582860162000115565b9150509250929050565b61105a80620001836000396000f3fe608060405234801561001057600080fd5b50600436106100935760003560e01c80636e553f65116100665780636e553f6514610144578063b4eae1cb14610160578063b9f2c7b51461017e578063c5ebeaec146101ae578063c710ccd6146101ca57610093565b806323e103a8146100985780632703ee85146100b457806329bc969d146100e4578063478230f714610114575b600080fd5b6100b260048036038101906100ad9190610967565b6101e8565b005b6100ce60048036038101906100c991906109ce565b610386565b6040516100db9190610a0a565b60405180910390f35b6100fe60048036038101906100f991906109ce565b6103ce565b60405161010b9190610a0a565b60405180910390f35b61012e600480360381019061012991906109ce565b6103e6565b60405161013b9190610a0a565b60405180910390f35b61015e60048036038101906101599190610a25565b6103fe565b005b610168610569565b6040516101759190610a0a565b60405180910390f35b610198600480360381019061019391906109ce565b61056f565b6040516101a59190610a0a565b60405180910390f35b6101c860048036038101906101c39190610a65565b6105b8565b005b6101d26108a8565b6040516101df9190610af1565b60405180910390f35b6000841161022b576040517f08c379a000000000000000000000000000000000000000000000000000000000815260040161022290610b8f565b60405180910390fd5b836000808473ffffffffffffffffffffffffffffffffffffffff1673ffffffffffffffffffffffffffffffffffffffff1681526020019081526020016000205410156102ac576040517f08c379a00000000000000000000000000000000000000000000000000000000081526004016102a390610bfb565b60405180910390fd5b836000808473ffffffffffffffffffffffffffffffffffffffff1673ffffffffffffffffffffffffffffffffffffffff16815260200190815260200160002060008282546102fa9190610c4a565b925050819055508273ffffffffffffffffffffffffffffffffffffffff1663a9059cbb82866040518363ffffffff1660e01b815260040161033c929190610c8d565b6020604051808303816000875af115801561035b573d6000803e3d6000fd5b505050506040513d601f19601f8201168201806040525081019061037f9190610cee565b5050505050565b60008060008373ffffffffffffffffffffffffffffffffffffffff1673ffffffffffffffffffffffffffffffffffffffff168152602001908152602001600020549050919050565b60006020528060005260406000206000915090505481565b60016020528060005260406000206000915090505481565b60008211610441576040517f08c379a000000000000000000000000000000000000000000000000000000000815260040161043890610d8d565b60405180910390fd5b816000803373ffffffffffffffffffffffffffffffffffffffff1673ffffffffffffffffffffffffffffffffffffffff168152602001908152602001600020600082825461048f9190610dad565b925050819055508073ffffffffffffffffffffffffffffffffffffffff166323b872dd3330856040518463ffffffff1660e01b81526004016104d393929190610de1565b6020604051808303816000875af11580156104f2573d6000803e3d6000fd5b505050506040513d601f19601f820116820180604052508101906105169190610cee565b503373ffffffffffffffffffffffffffffffffffffffff167fe1fffcc4923d04b559f4d29a8bfc6cda04eb5b0d3c460751c2402c5c5cc9109c8360405161055d9190610a0a565b60405180910390a25050565b60035481565b6000600160008373ffffffffffffffffffffffffffffffffffffffff1673ffffffffffffffffffffffffffffffffffffffff168152602001908152602001600020549050919050565b600081116105fb576040517f08c379a00000000000000000000000000000000000000000000000000000000081526004016105f290610e8a565b60405180910390fd5b60008060003373ffffffffffffffffffffffffffffffffffffffff1673ffffffffffffffffffffffffffffffffffffffff168152602001908152602001600020541161067c576040517f08c379a000000000000000000000000000000000000000000000000000000000815260040161067390610ef6565b60405180910390fd5b60646003546000803373ffffffffffffffffffffffffffffffffffffffff1673ffffffffffffffffffffffffffffffffffffffff168152602001908152602001600020546106ca9190610f16565b6106d49190610f87565b81600160003373ffffffffffffffffffffffffffffffffffffffff1673ffffffffffffffffffffffffffffffffffffffff1681526020019081526020016000205461071f9190610dad565b1115610760576040517f08c379a000000000000000000000000000000000000000000000000000000000815260040161075790611004565b60405180910390fd5b80600160003373ffffffffffffffffffffffffffffffffffffffff1673ffffffffffffffffffffffffffffffffffffffff16815260200190815260200160002060008282546107af9190610dad565b92505081905550600260009054906101000a900473ffffffffffffffffffffffffffffffffffffffff1673ffffffffffffffffffffffffffffffffffffffff1663a9059cbb33836040518363ffffffff1660e01b8152600401610813929190610c8d565b6020604051808303816000875af1158015610832573d6000803e3d6000fd5b505050506040513d601f19601f820116820180604052508101906108569190610cee565b503373ffffffffffffffffffffffffffffffffffffffff167fcbc04eca7e9da35cb1393a6135a199ca52e450d5e9251cbd99f7847d33a367508260405161089d9190610a0a565b60405180910390a250565b600260009054906101000a900473ffffffffffffffffffffffffffffffffffffffff1681565b600080fd5b6000819050919050565b6108e6816108d3565b81146108f157600080fd5b50565b600081359050610903816108dd565b92915050565b600073ffffffffffffffffffffffffffffffffffffffff82169050919050565b600061093482610909565b9050919050565b61094481610929565b811461094f57600080fd5b50565b6000813590506109618161093b565b92915050565b60008060008060808587031215610981576109806108ce565b5b600061098f878288016108f4565b94505060206109a087828801610952565b93505060406109b187828801610952565b92505060606109c287828801610952565b91505092959194509250565b6000602082840312156109e4576109e36108ce565b5b60006109f284828501610952565b91505092915050565b610a04816108d3565b82525050565b6000602082019050610a1f60008301846109fb565b92915050565b60008060408385031215610a3c57610a3b6108ce565b5b6000610a4a858286016108f4565b9250506020610a5b85828601610952565b9150509250929050565b600060208284031215610a7b57610a7a6108ce565b5b6000610a89848285016108f4565b91505092915050565b6000819050919050565b6000610ab7610ab2610aad84610909565b610a92565b610909565b9050919050565b6000610ac982610a9c565b9050919050565b6000610adb82610abe565b9050919050565b610aeb81610ad0565b82525050565b6000602082019050610b066000830184610ae2565b92915050565b600082825260208201905092915050565b7f526570617920616d6f756e74206d75737420626520677265617465722074686160008201527f6e207a65726f0000000000000000000000000000000000000000000000000000602082015250565b6000610b79602683610b0c565b9150610b8482610b1d565b604082019050919050565b60006020820190508181036000830152610ba881610b6c565b9050919050565b7f6f6f707300000000000000000000000000000000000000000000000000000000600082015250565b6000610be5600483610b0c565b9150610bf082610baf565b602082019050919050565b60006020820190508181036000830152610c1481610bd8565b9050919050565b7f4e487b7100000000000000000000000000000000000000000000000000000000600052601160045260246000fd5b6000610c55826108d3565b9150610c60836108d3565b9250828203905081811115610c7857610c77610c1b565b5b92915050565b610c8781610929565b82525050565b6000604082019050610ca26000830185610c7e565b610caf60208301846109fb565b9392505050565b60008115159050919050565b610ccb81610cb6565b8114610cd657600080fd5b50565b600081519050610ce881610cc2565b92915050565b600060208284031215610d0457610d036108ce565b5b6000610d1284828501610cd9565b91505092915050565b7f4465706f73697420616d6f756e74206d7573742062652067726561746572207460008201527f68616e207a65726f000000000000000000000000000000000000000000000000602082015250565b6000610d77602883610b0c565b9150610d8282610d1b565b604082019050919050565b60006020820190508181036000830152610da681610d6a565b9050919050565b6000610db8826108d3565b9150610dc3836108d3565b9250828201905080821115610ddb57610dda610c1b565b5b92915050565b6000606082019050610df66000830186610c7e565b610e036020830185610c7e565b610e1060408301846109fb565b949350505050565b7f426f72726f7720616d6f756e74206d757374206265206772656174657220746860008201527f616e207a65726f00000000000000000000000000000000000000000000000000602082015250565b6000610e74602783610b0c565b9150610e7f82610e18565b604082019050919050565b60006020820190508181036000830152610ea381610e67565b9050919050565b7f4e6f20636f6c6c61746572616c206465706f7369746564000000000000000000600082015250565b6000610ee0601783610b0c565b9150610eeb82610eaa565b602082019050919050565b60006020820190508181036000830152610f0f81610ed3565b9050919050565b6000610f21826108d3565b9150610f2c836108d3565b9250828202610f3a816108d3565b91508282048414831517610f5157610f50610c1b565b5b5092915050565b7f4e487b7100000000000000000000000000000000000000000000000000000000600052601260045260246000fd5b6000610f92826108d3565b9150610f9d836108d3565b925082610fad57610fac610f58565b5b828204905092915050565b7f4578636565647320636f6c6c61746572616c20726174696f0000000000000000600082015250565b6000610fee601883610b0c565b9150610ff982610fb8565b602082019050919050565b6000602082019050818103600083015261101d81610fe1565b905091905056fea26469706673582212205256c0b810f4afe2dc4d47fb83f61a7639a5abc593f94708b54c3f95d701471c64736f6c63430008180033",
  "linkReferences": {},
  "deployedLinkReferences": {}
}